:020000040802F0
:1000000000000824856D0408A55F0408A95F0408A2
:100010003D6004083F6004084160040800000000DF
:100020000000000000000000000000004360040821
:1000300045600408000000004760040849600408A7
:10004000D56D0408D56D0408D56D0408D56D040878
:10005000D56D0408D56D0408D56D0408D56D040868
:10006000D56D0408D56D0408D56D04083161040808
:10007000D56D0408D56D0408D56D0408D56D040848
:10008000D56D0408D56D0408D56D0408D56D040838
:10009000D56D0408D56D0408D56D0408D56D040828
:1000A000D56D0408D56D0408D56D0408D56D040818
:1000B0004161040851610408D56D0408D56D040838
:1000C000D56D0408D56D0408D56D0408D56D0408F8
:1000D000D56D040861610408716104088161040838
:1000E00091610408D56D040800000000D56D040876
:1000F000D56D0408D56D0408D56D0408D56D0408C8
:10010000D56D04089D610408D56D0408D56D0408FB
:10011000D56D0408D56D0408D56D0408D56D0408A7
:10012000D56D0408D56D0408D56D0408D56D040897
:10013000D56D0408FD610408D56D0408D56D04086B
:1001400000000000000000000000000000000000AF
:10015000D56D0408D56D0408D56D0408AD6104089B
:10016000D56D0408D56D0408D56D0408D56D040857
:10017000D56D0408D56D0408D56D04080000000095
:10018000D56D0408D56D0408BD610408CD6104086F
:10019000D56D0408DD610408D56D0408D56D04082B
:1001A0000000000000000000D56D0408D56D0408B3
:1001B000D56D0408D56D0408D56D0408D56D040807
:1001C000D56D0408D56D0408D56D0408D56D0408F7
:1001D000D56D0408D56D0408D56D0408D56D0408E7
:1001E000D56D0408D56D0408D56D0408D56D0408D7
:1001F000D56D0408D56D0408D56D0408D56D0408C7
:10020000D56D0408D56D0408D56D0408D56D0408B6
:10021000ED610408D56D0408D56D0408D56D04089A
:10022000D56D040800000000D56D04080000000032
:10023000D56D0408D56D040800000000D56D0408D4
:10024000D56D0408D56D0408D56D0408D56D040876
:10025000D56D0408D56D0408D56D0408D56D040866
:10026000D56D0408D56D0408D56D0408D56D040856
:10027000D56D0408D56D0408D56D04080000000094
:10028000D56D0408D56D0408D56D04080000000084
:0802900000000000D56D040818
:1002A00010B5054C237833B9044B13B10448AFF3B0
:1002B00000800123237010BD08030024000000000B
:1002C000AC26080808B5034B1BB103490348AFF33C
:1002D000008008BD000000000C030024AC260808C4
:1002E00010F8012B11F8013B012A28BF9A42F7D0E0
:1002F000D01A70470000000000000000000000005D
:1003000001F0FF01102A2BDB10F0070F08D010F8C6
:10031000013B013A8B422DD010F0070F42B3F6D1CA
:10032000F0B441EA012141EA014122F007047FF0E3
:1003300000070023F0E80256083C85EA010586EA3A
:10034000010685FA47F5A3FA87F586FA47F6A5FA76
:1003500087F68EB9EED1F0BC01F0FF0102F0070282
:1003600032B110F8013B013A83EA010313B1F8D12D
:100370000020704701387047002D06BF354603380E
:10038000073815F0010F07D1013015F4807F02BF47
:10039000013015F4C03F0130F0BC0138704700BF98
:1003A000034613F8012B002AFBD1181A01387047B5
:1003B00081F0004102E000BF83F0004330B54FEA16
:1003C00041044FEA430594EA050F08BF90EA020F83
:1003D0001FBF54EA000C55EA020C7FEA645C7FEA16
:1003E000655C00F0E2804FEA5454D4EB5555B8BF39
:1003F0006D420CDD2C4480EA020281EA030382EAAA
:10040000000083EA010180EA020281EA0303362D3B
:1004100088BF30BD11F0004F4FEA01314FF4801C0E
:100420004CEA113102D0404261EB410113F0004F20
:100430004FEA03334CEA133302D0524263EB4303D7
:1004400094EA050F00F0A780A4F10104D5F1200E75
:100450000DDB02FA0EFC22FA05F2801841F10001D0
:1004600003FA0EF2801843FA05F359410EE0A5F1A4
:1004700020050EF1200E012A03FA0EFC28BF4CF0D5
:10048000020C43FA05F3C01851EBE37101F000458B
:1004900007D54FF0000EDCF1000C7EEB00006EEB98
:1004A0000101B1F5801F1BD3B1F5001F0CD3490822
:1004B0005FEA30004FEA3C0C04F101044FEA445279
:1004C00012F5800F80F09A80BCF1004F08BF5FEA00
:1004D000500C50F1000041EB045141EA050130BDE0
:1004E0005FEA4C0C404141EB0101013C28BFB1F5F2
:1004F000801FE9D291F0000F04BF01460020B1FA3D
:1005000081F308BF2033A3F10B03B3F120020CDA0F
:100510000C3208DD02F1140CC2F10C0201FA0CF0ED
:1005200021FA02F10CE002F11402D8BFC2F1200C52
:1005300001FA02F120FA0CFCDCBF41EA0C01904008
:10054000E41AA2BF01EB0451294330BD6FEA040451
:100550001F3C1CDA0C340EDC04F11404C4F120023C
:1005600020FA04F001FA02F340EA030021FA04F34E
:1005700045EA030130BDC4F10C04C4F1200220FAA5
:1005800002F001FA04F340EA0300294630BD21FAE3
:1005900004F0294630BD94F0000F83F4801306BFA9
:1005A00081F480110134013D4EE77FEA645C18BF9D
:1005B0007FEA655C29D094EA050F08BF90EA020F34
:1005C00005D054EA000C04BF1946104630BD91EA2C
:1005D000030F1EBF0021002030BD5FEA545C05D12F
:1005E0004000494128BF41F0004130BD14F580046E
:1005F0003CBF01F5801130BD01F0004545F0FE41E2
:1006000041F470014FF0000030BD7FEA645C1ABF16
:10061000194610467FEA655C1CBF0B46024650EA4D
:10062000013406BF52EA033591EA030F41F4002179
:1006300030BD00BF90F0000F04BF0021704730B5FF
:100640004FF4806404F132044FF000054FF00001D4
:1006500050E700BF90F0000F04BF0021704730B595
:100660004FF4806404F1320410F0004548BF40426A
:100670004FF000013EE700BF42004FEAE2014FEABF
:1006800031014FEA02701FBF12F07F4393F07F4F9A
:1006900081F06051704732F07F4208BF704793F09D
:1006A0007F4F04BF41F40021704730B54FF46074B0
:1006B00001F0004521F000411CE700BF50EA0102B3
:1006C00008BF704730B54FF000050AE050EA01025C
:1006D00008BF704730B511F0004502D5404261EBCC
:1006E00041014FF4806404F132045FEA915C3FF40D
:1006F000D8AE4FF003025FEADC0C18BF03325FEAAA
:10070000DC0C18BF033202EBDC02C2F1200300FA5A
:1007100003FC20FA02F001FA03FE40EA0E0021FA7F
:1007200002F11444BDE600BF80F0004002E000BFCB
:1007300081F0004142001FBF5FEA410392EA030FCC
:100740007FEA226C7FEA236C6AD04FEA1262D2EB16
:100750001363C1BFD218414048404140B8BF5B421B
:10076000192B88BF704710F0004F40F4000020F0B4
:100770007F4018BF404211F0004F41F4000121F0CA
:100780007F4118BF494292EA030F3FD0A2F1010214
:1007900041FA03FC10EB0C00C3F1200301FA03F152
:1007A00000F0004302D5494260EB4000B0F5000F75
:1007B00013D3B0F1807F06D340084FEA310102F134
:1007C0000102FE2A51D2B1F1004F40EBC25008BFE6
:1007D00020F0010040EA03007047490040EB0000B0
:1007E000013A28BFB0F5000FEDD2B0FA80FCACF1B1
:1007F000080CB2EB0C0200FA0CF0AABF00EBC250DE
:1008000052421843BCBFD0401843704792F0000FCB
:1008100081F4000106BF80F400000132013BB5E71E
:100820004FEA41037FEA226C18BF7FEA236C21D094
:1008300092EA030F04D092F0000F08BF08467047F9
:1008400090EA010F1CBF0020704712F07F4F04D1C7
:10085000400028BF40F00040704712F100723CBFDA
:1008600000F50000704700F0004343F0FE4040F404
:10087000000070477FEA226216BF08467FEA2363C2
:100880000146420206BF5FEA412390EA010F40F4AD
:10089000800070474FF0000304E000BF10F00043F9
:1008A00048BF40425FEA000C08BF704743F09643E0
:1008B00001464FF000001CE050EA010208BF7047FB
:1008C0004FF000030AE000BF50EA010208BF704782
:1008D00011F0004302D5404261EB41015FEA010C97
:1008E00002BF84460146002043F0B64308BFA3F18F
:1008F0008053A3F50003BCFA8CF2083AA3EBC25371
:1009000010DB01FA02FC634400FA02FCC2F120028F
:10091000BCF1004F20FA02F243EB020008BF20F0C6
:100920000100704702F1200201FA02FCC2F120022C
:1009300050EA4C0021FA02F243EB020008BF20EA21
:10094000DC7070477BB972B90029BEBF00204FF040
:10095000004106E008BF00281CBF6FF000414FF0C7
:10096000FF3000F00DBAADF1080C6DE904CE00299E
:1009700009DB002B1ADB00F087F8DDF804E0DDE985
:10098000022304B07047404261EB4101002B1BDBA6
:1009900000F07AF8DDF804E0DDE9022304B040421B
:1009A00061EB4101524263EB43037047524263EBF8
:1009B000430300F069F8DDF804E0DDE9022304B048
:1009C000404261EB41017047524263EB430300F048
:1009D0005BF8DDF804E0DDE9022304B0524263EB8A
:1009E0004303704753B94AB9002908BF00281CBF08
:1009F0004FF0FF314FF0FF3000F0C2B9ADF1080CFD
:100A00006DE904CE00F040F8DDF804E0DDE90223F2
:100A100004B0704708B502460B4643EC172BB5EE01
:100A2000C07BF1EE10FA03D4BDE8084000F00CB82A
:100A3000B1EE477B51EC170B00F006F8404261EB3A
:100A4000410108BD000000009FED0B6B41EC170B4E
:100A50009FED0B5B27EE066BBCEEC66BB8EE464B0C
:100A6000A4EE457BFCEEC77B16EE101A17EE900A3B
:100A7000704700BFAFF30080000000000000F03DB1
:100A8000000000000000F0412DE9F047089D8E466F
:100A900004468846002B4AD18A42174662D9B2FAE8
:100AA00082F64EB1C6F1200301FA06F820FA03F3EC
:100AB000B74043EA0808B4404FEA174E1FFA87FCD4
:100AC000B8FBFEF1230C0EFB118843EA084301FB3F
:100AD0000CF29A4209D9FB1801F1FF3080F0EA804C
:100AE0009A4240F2E78002393B449A1AA3B2B2FB21
:100AF000FEF00EFB102243EA024300FB0CFC9C4577
:100B000009D9FB1800F1FF3280F0D6809C4540F2F5
:100B1000D3803B44023840EA0140A3EB0C030021A0
:100B20001DB1F3400022C5E90032BDE8F0878B42D9
:100B300005D90DB1C5E9000100210846F5E7B3FA72
:100B400083F1002946D1734502D3824200F2058128
:100B5000841A6EEB030201209046002DE5D0C5E912
:100B60000048E2E7002A00F09080B2FA82F6002EF8
:100B700040F0A4808A1A030C4FEA174E80B2BCB230
:100B80000121B2FBFEFC0EFB1C2243EA024304FBE4
:100B90000CF29A4207D9FB180CF1FF3802D29A42A4
:100BA00000F2E080C4469B1AB3FBFEF20EFB123348
:100BB00040EA034302FB04F49C4207D9FB1802F10C
:100BC000FF3002D29C4200F2CA8002461B1B42EA5E
:100BD0000C40A5E7C1F120068B4022FA06F71F431F
:100BE0000EFA01F420FA06F32EFA06FE4FEA174930
:100BF000234300FA01F81FFA87FCBEFBF9F01C0C36
:100C000009FB10EE44EA0E4400FB0CFEA64502FA76
:100C100001F209D93C1900F1FF3A80F09C80A64509
:100C200040F2998002383C44A4EB0E041FFA83FE84
:100C3000B4FBF9F309FB13444EEA044403FB0CFC38
:100C4000A44508D93C1903F1FF3E80F08280A445F9
:100C50007FD9023B3C4443EA0040A4EB0C04A0FBD8
:100C600002EC64457346E14662D35FD05DB1B8EBF8
:100C7000030264EB090404FA06F622FA01F31E43A8
:100C8000CC40C5E9006400214FE7B1FBF2FC010C48
:100C900041EA0E4180B240EA01423B4638463C46BA
:100CA000B846BE462026B1FBF7F1A2EB080241EAA6
:100CB0000C4166E7014618E710462CE7C6F1200212
:100CC0002EFA02F3B740B14020FA02F24FEA174E73
:100CD0000A43B3FBFEF8BCB20EFB1833110C41EA19
:100CE000034108FB04F9B04089454FEA104380B244
:100CF0003ED9791808F1FF3C01D289451FD8A1EBF4
:100D00000901B1FBFEF909FB04F80EFB191192B2BF
:100D100042EA0142424529D2BA1809F1FF31C4D250
:100D20004245C2D2A9F102013A44BEE7F0459DD244
:100D3000BEEB02036CEB070C0138E14696E7A7EB2C
:100D400009094944A8F1020CB1FBFEF909FB04F8BA
:100D5000DBE773467FE7504666E70846FDE63B441F
:100D6000023A33E7ACF1020C3B441CE749469CE7EE
:100D7000A1EB0901C446B1FBFEF909FB04F8C4E785
:100D8000704700BF08B5024800F0F4FD08BD00BF81
:100D9000600B002408B5024800F0F3FD08BD00BF59
:100DA000600B002400B583B040F44040030A8DF886
:100DB00004308DF8050000238DF806308DF80730DB
:100DC000FFF7E0FF04236A460DEB0301064800F03D
:100DD00083FDFFF7DFFF9DF802009DF8033043EA33
:100DE000002003B05DF804FB600B002430B583B035
:100DF00005460C4640F480431A0A8DF804208DF80D
:100E000005300B0A8DF806308DF80710FFF7BAFF92
:100E100004220DEB0201064800F083FDFFF7BAFF44
:100E20002246294603485DF0C1F903B030BD00BF3A
:100E3000600B0024682808082DE9F041C2B08846FC
:100E4000144637485DF022FA214636485DF0AEF987
:100E50004FF40070FFF7A6FF074604F10A06B6B28A
:100E6000864257D8014630485DF0A0F931464FF42C
:100E70008070FFF7BBFF02ADAA238DF808308DF814
:100E800009308DF80A308DF80B308DF80C40230AAC
:100E90008DF80D3000238DF80E308DF80F3022467E
:100EA000414604A85EF037FC04F108039BB25522CA
:100EB000EA5404F109039BB2EA5416F0010F03D07F
:100EC0000B340022AA55A6B200238DF804308DF809
:100ED0000530FFF757FF154C022201A9204600F00C
:100EE00020FD324602A9204600F01BFDFFF752FF0D
:100EF0000F485DF0CBF90A2026F086F84FF4007019
:100F0000FFF750FF01463A1A0A485DF04FF942B028
:100F1000BDE8F0810246314607485DF047F9F6E743
:100F200094280808CC28080818290808600B002411
:100F3000342908085C290808F0280808F0B589B0A9
:100F400084485DF0A3F94FF44070FFF72BFF04468F
:100F5000014681485DF02AF9631E9BB24FF6FD728F
:100F6000934232D8B4F5036F00F2CA8014F0010F37
:100F700001D0611C8CB221464FF48070FFF736FF20
:100F8000764E40F63402002130465DF04BFB802364
:100F90008DF81C3000238DF81D30FFF7F3FE704DE7
:100FA000022207A9284600F0BCFC2246314628460A
:100FB00000F0BDFCFFF7EEFE2546032C00F3C680D3
:100FC00068485DF063F909B0F0BD67485DF05EF90F
:100FD000F9E701348C42F3D013F8012BAA2AF8D197
:100FE0001A78AA2AF5D15A78AA2AF2D19A78AA2A86
:100FF000EFD121465D485DF0D9F8631DAB4257DA69
:10100000564A11190E79D35C46EA032631465848F0
:101010005DF0CCF808343319AB424DDC0D2ED2D93B
:101020004E4965182B7B6F7B47EA03276B79029348
:101030002B790193EB780093AB786A78095D4D4882
:101040005DF0B4F8EB7A0293AB7A01936B7A00937C
:101050002B7AEA79A97948485DF0A8F839464748DB
:101060005DF0A4F8464B1B7823B1464B93F8EF3064
:10107000592B25D048F6E1039F42A4D1132EA2D9C3
:101080002B7CEC7B44EA0324A97B3F485DF08EF87F
:1010900021463E485DF08AF846F209039C422BD077
:1010A00046F208039C428ED139485DF0EFF88AE79A
:1010B00038485DF0EBF886E737485DF0E7F882E7FF
:1010C000364CEB7A0493AB7A03936B7A02932B7AC8
:1010D0000193EB790093AB79314A182120465DF0FA
:1010E000DDF821462F485DF061F85F2384F8A630D3
:1010F0005A2384F8A730BDE72B485DF0C7F862E7B4
:101100004FF403614FF48070FFF770FE134D40F60B
:101110003402002128465DF085FA80238DF81C30CA
:1011200000238DF81D30FFF72DFE0D4C022207A97C
:10113000204600F0F6FB4FF403622946204600F0FB
:10114000F6FBFFF727FE4FF403652C46034BE11E29
:10115000002441E784290808B82908082803002446
:10116000600B0024082A0808D4290808E829080880
:10117000302A08086C2A0808A02A0808D42A080877
:1011800024030024840D0024242B0808402B080885
:10119000802B08081C2A0808482A0808CC0D0024BF
:1011A000F02A08080C2B08085C2B080830B585B01D
:1011B0000446384D28682060A888A0800868C4F8D4
:1011C00006008988618188212173E12161730120F2
:1011D000A0730821E1736021217400216174A1745E
:1011E000E0746161A161042525776177A177E177DA
:1011F0009DF8205084F820501568C4F82150958837
:101200009279A4F8255084F8272084F828001D68D6
:1012100058689A68DB68C4F82950C4F82D00C4F8EF
:101220003120C4F8353084F8391084F83A1084F845
:101230003B1019485DF02AF83C2118485CF0B6FFD5
:101240006379029323790193E3780093A37862781A
:10125000217813485CF0AAFFE37A0293A37A019302
:10126000637A0093237AE279A1790E485CF09EFFBD
:10127000217B637B43EA01210B485CF097FFE17B14
:10128000A37B43EA012109485CF090FF3C2005B0B4
:1012900030BD00BFC8260808A82B0808D82B0808AE
:1012A000FC2B0808302C0808642C0808802C08083F
:1012B00070B582B023290ED90446037B417B41EAF5
:1012C000032148F6E10399420AD031485CF06EFFF1
:1012D000002002B070BD2F485CF0D8FF0020F8E776
:1012E000867B037CC57B45EA03252B485CF0CEFF5B
:1012F00031462A485CF05AFF294629485CF056FFDF
:1013000046F209039D4209D046F208039D4239D0B6
:10131000294624485CF04AFF0020DAE7A57C2248F1
:101320005CF0B4FF214A224B002D08BF1A46294623
:1013300020485CF03BFFA37D0093637D227DE17C30
:101340001D485CF033FFA37E0093637E227EE17D27
:101350001A485CF02BFFE17E19485CF027FF617FA3
:10136000237F43EA012117485CF020FFA17F164844
:101370005CF01CFFE17F15485CF018FFB5FA85F0C2
:101380004009A6E712485CF081FF0020A1E700BFFA
:10139000D42C0808B02C0808042D0808242D0808AF
:1013A000302E0808282E0808342D0808A82C080814
:1013B000A02C0808642D08087C2D08089C2D08081E
:1013C000C02D0808D02D0808E02D0808F02D0808C9
:1013D000042E080810B5A2B004460A485CF056FF77
:1013E00000230093084B094A094902A8FFF7DEFED3
:1013F000024602A92046FFF71FFD06485CF046FFA3
:1014000022B010BD442E080888A3090880A309084B
:1014100098A30908742E08082DE9F04707460C46E2
:1014200025F0ECFD0546214629485CF0BFFE4FF44F
:101430004076DFF8A880DFF89C9023E001338342F8
:101440001DD012F8011BAA29F8D11178AA29F5D1CB
:101450005178AA29F2D19178AA29EFD140F62B022E
:1014600093420CD809EB030251791279083342EA0E
:10147000012109EB0300FFF71BFF034620BB3220CD
:1014800025F0C2FD25F0BAFD401BA04218D230461F
:10149000FFF788FC8246431E9BB24FF6FD729342D3
:1014A000EDD8014640465CF081FE3846FFF746FD28
:1014B000BAF1030FE3DD074AAAF103000023C0E7F6
:1014C00005485CF0E3FE00231846BDE8F08700BF46
:1014D000A42E080828030024F42E0808D82E080893
:1014E0002DE9F84F002940D080460E460124DFF850
:1014F00088A0DFF88890DFF888B013E01C485CF023
:10150000C5FE4FF4FA7025F07FFD07E021465846EE
:101510005CF04CFE4FF4FA7025F076FD0134E4B235
:10152000A6421ED33246214650465CF03FFE4FF4A1
:101530000070FFF737FC0546014648465CF036FE72
:101540007F2DDBD94046FFF745FF40F6B8314046D6
:10155000FFF762FF05460028D8D006485CF096FEEB
:1015600000E000252846BDE8F88F0025FAE700BF17
:10157000542F0808742F0808182F0808382F080857
:10158000982F080808B52B482B4B03604FF40052E6
:10159000828083604FF40042828103614FF4804275
:1015A000828283614FF48053838301238377C377DF
:1015B000002380F8203080F82130436200F096F854
:1015C000D0B11E485CF062FE1D4B05221A704FF42C
:1015D000FA7025F019FD4FF4D050FFF7E3FB0146F8
:1015E0004AF6552398420BD045F6A523984207D0DA
:1015F00014485CF0DBFD06E013485CF047FEE3E7CF
:1016000012485CF0D3FD01210846FFF769FF60B185
:101610000F485CF03BFE0F485CF038FE0E4B1B7829
:101620000133DBB20C4A137008BD0C485CF02EFE8F
:101630000023F7E7600B002400040258B82F0808C5
:101640005C0B002460300808F42F080828300808D4
:101650008C300808B030080825030024CC30080876
:1016600008B5134B1B78E3B1012B1DD1114B1B782F
:10167000DBB2022B18D1104B93F84830A3B94FF4CA
:101680004070FFF78FFB431E9BB24FF6FD729342F3
:101690000AD8014609485CF089FD0120FFF74EFC9D
:1016A00002E0034B01221A7023F0D0FF08BD00BFF7
:1016B0002403002451130024840D0024E83008087A
:1016C000436A6BB1074A12680749A1FB0212920CE8
:1016D00003FB02F29308032A02D900BF013BFCD1AD
:1016E000704700BF6400002483DE1B43002865D0E0
:1016F00030B587B0044690F82130002B34D1002556
:101700000395059583880193012302930323049392
:1017100001A9006829F0E2FBA389019301A9A0684F
:1017200029F0DCFBA38A01930295039501A92069A6
:1017300029F0D4FBA06960B1A38B0193012302932C
:1017400003950323049301A929F0C8FBA369A28B85
:101750009A61A37F23B92268A3881B04936128E0C0
:101760002368A2889A6124E00025029503950595D7
:10177000838801930323049301A9006829F0AEFB39
:10178000A389019301A9A06829F0A8FBA38A01936A
:1017900001230293039501A9206929F09FFBA06909
:1017A00038B1A38B019302950123039301A929F07A
:1017B00095FB012084F8280007B030BD0020704759
:1017C0002DE9F04100287CD00F46044690F82830DF
:1017D000002B79D090F82180B8F1000F79D190F8E2
:1017E0002030002B14BF01268026082535E0A26892
:1017F000A3891B04936138E02268A3881B049361CA
:101800003CE02368A2889A611EE0A37F002B47D1A9
:101810002368A2889A61374247D0A368A2899A6157
:101820002046FFF74DFFA37F002B43D12268A388FA
:101830001B0493612046FFF743FF23691B69A28ABB
:101840001A4218BF48EA060894F82030002B35D118
:1018500076086B1E13F0FF0538D0E37F002BD4D140
:101860003742C4D0A368A2899A612046FFF728FFB7
:10187000A37F002BC0D12368A2889A612046FFF77E
:101880001FFF23691B69A28A1A4218BF48EA06088B
:10189000A37F002BB5D12268A3881B049361D3E7F3
:1018A0002268A3881B049361B5E7A268A3891B047F
:1018B0009361B5E72368A2889A61BBE77600F6B228
:1018C000C7E74FF0000801E04FF000084046BDE8D0
:1018D000F0814FF00008F9E72DE9F843C8B116464A
:1018E0001F46804690F82890B9F1000F16D099B1A4
:1018F00093B14D1E002403E00134A3B29F420DD9E1
:1019000015F8011F4046FFF75BFF002EF4D030555D
:10191000F2E74FF0000901E04FF000094846BDE84A
:10192000F88308B513460022FFF7D6FF08BD2DE95E
:10193000F843C8B11646074690F82880B8F1000F62
:101940000FD0A1B19AB14D1E00244FF0FF094946B6
:101950003846FFF735FF05F8010F0134A4B2A6425F
:10196000F5D84046BDE8F8834FF00008F9E74FF09E
:101970000008F6E720B1826912B1838B1B049361E2
:10198000704718B182690AB1838B93617047000078
:10199000304B9B78002B4AD110B52F4B1B78002B76
:1019A00029D02E4B9B79DBB2032B09D02B4B9B7993
:1019B000DBB2042B04D0294B9B79DBB2062B11D16F
:1019C000274B9B7D6BB9274B9B79DBB2082B08D04B
:1019D000244B9B79DBB2092B224B0CBF0922082236
:1019E0009A7110BD1E4B0024DC759C7514F0A6FF87
:1019F000194B1C70E4E71C4B1B78002BE0D0174BF5
:101A00009B79DBB2032BDBD0144B9B79DBB2042B2D
:101A1000D6D0124B9B79DBB2062BD1D0104B0024D1
:101A2000DC759C7514F08AFF0B4B1C70C8E70C4BDF
:101A30009B7D73B90B4B9B79DBB2082B09D0094B0B
:101A40009B79DBB2092B074B0CBF092208229A7144
:101A500070477047D4910224DA8A0224840D00244E
:101A600068690224940F0024D98A022410B51D4B02
:101A70005B8C9BB21E2B02D81A4B1E225A84194B28
:101A80005A8C92B21849CA805A8C92B21749CA80AD
:101A90009B7D012B164B0CBF012208229A71144A20
:101AA00001219171FF201070124CA1712070124B16
:101AB0001870507060709170D17000201082188280
:101AC00058720E4A51700E4A3C21117700225A6317
:101AD0009A63DA63034B78229A830CF0DBFA14F0F2
:101AE00079F810BD68690224D4910224C8910224B7
:101AF000940F00248C0E0024840D00240011002477
:101B0000380C0024BFF34F8F0549CA6802F4E06225
:101B1000044B1343CB60BFF34F8F00BFFDE700BF03
:101B200000ED00E00400FA0510B592B09C4B5B6C30
:101B300013F0010F42D09B4B9B78002B3ED19A4B68
:101B40009A789B78DBB2092B67D8974B5C78944ADC
:101B500014729978C9B2917193ED056A82ED066AA3
:101B6000D3ED066AC2ED076A93ED0C7BB7EEC77B37
:101B700082ED0B7AD3F820E0C2F824E0D3F824C039
:101B8000C2F828C0D8691062D97801B15172874B68
:101B90001C72854A9278D2B29A7183ED066AC3EDBF
:101BA000076A83ED0B7AC3F824E0C3F828C01862F3
:101BB00059727B4A536C23F001035364784B5B6C7E
:101BC00013F0020F64D0764B9B79DBB2032B2CD041
:101BD000774B1B889BB2774A928B9A4236D8704BD0
:101BE0009B79DBB2012B6BD16D4A536C23F002035E
:101BF0005364714B04225A8070485CF047FB002309
:101C00006F4A13706F4A012111706F4A05211170DC
:101C10006E4A13706E4A137052E0614A536C23F09F
:101C200001035364002012B010BD5D4A536C23F0D1
:101C300002035364674A936843F001039360604B67
:101C400000221A705F4B01221A7039E0544B9B79C5
:101C5000DBB2022B18D0564B1B889BB25E4A12781F
:101C60009A422DD04E4B9B79DBB2012B28D1504BA1
:101C70001988594A1170564A01211170198889B280
:101C800056485CF093FA1BE04B4B02225A8017E057
:101C9000434B5B6C13F0040F12D0414B9B79DBB2CA
:101CA000032B40D04B4B5B68002B40D0494A9368D4
:101CB00043F0020393603A4A536C23F004035364E5
:101CC000474B93F8C03013F0010FABD1344B93F86E
:101CD000483093B1324B9B79DBB2032B00F08C8000
:101CE0002F4B9B79DBB2042B00F08680314BDA8AD4
:101CF00040F201139A4240F0E9802E4B5B7E022BAA
:101D000000F0F380002B8DD0254B9B79DBB2062BA6
:101D100000F01681224B9B79DBB2012B82D1294B3B
:101D200000221A707EE7244B04225A80C8E72D4B0C
:101D30001B78002BBFD02C4C002204A920462CF08D
:101D4000DCFC002203A920462CF0FDFC9DF810309D
:101D50000B939DF811300A939DF8123009939DF86A
:101D60000E300C939DF80D30013B0D939DF80F3014
:101D700064330E9309A85CF09DFF044616F0FAFA4E
:101D80000246144B1B7801930094184B1B681849AA
:101D90000968184813F0DCFF124B00221A708AE71A
:101DA000840D0024D4910224001100247C0C002412
:101DB000A20B002468690224A80B0024083108083B
:101DC000A40B00240000002445160024461600241D
:101DD00052130024A0910224A10B002444310808CE
:101DE000C81C0224580C002454E30224740C002460
:101DF000780C00245C0C0024564957485CF096FC93
:101E0000002854D055485CF041FA524B00221A6029
:101E10005A609A60DA601A615A6153F8041C41F002
:101E2000040143F8041C4E4B1A704E4B03221A70E7
:101E30004D4B1B78002B3FF4F5AE4C4C002204A90F
:101E400020462CF05AFC002203A920462CF07BFCF3
:101E50009DF810300B939DF811300A939DF81230C5
:101E600009939DF80E300C939DF80D30013B0D93B6
:101E70009DF80F3064330E9309A85CF01BFF0446F5
:101E800016F078FA0246374B1B7801930094384BD2
:101E90001B6838490968384813F05AFF18B9324BA3
:101EA00000221A70BEE635485CF0F0F9F7E73448D6
:101EB0005CF0ECF9274B00221A605A609A60DA60F5
:101EC0001A615A61032001F025FFABE6032001F0FF
:101ED00021FF204B00221A605A609A60DA601A6172
:101EE0005A6128485CF0D2F907E7274B9B79DBB2AF
:101EF000022B0ED0244B9B79DBB2062B1CD0224B3D
:101F00009B79DBB2012B7FF48DAE204B00221A703F
:101F100088E61E4B1B78002BECD11B4A536C43F018
:101F2000020353641A4B1B8D3C339BB2194A138036
:101F30000B4B01221A70DDE7094B00221A7071E683
:101F4000114A536C43F004035364054B00221A708A
:101F500068E600BFCC0D0024AC910224783108085B
:101F600052130024A0910224580C002454E30224AC
:101F7000740C0024780C00245C0C002494310808B4
:101F8000CC310808EC310808840D0024000000243E
:101F900068690224A20B002408B5224B5B6C13F085
:101FA000400F1DD0204B5B78D3B9204B1A78A2F19B
:101FB0000803DBB2012B0BD9D31EDBB2012B2ED9C8
:101FC000062A2CD00823174A9371184A937126E0E9
:101FD0000EF0BEFA14F06AF80DF05AFBFFF792FD0E
:101FE000104B5B6C13F0200F19D0104B1A78D31ED6
:101FF000DBB2012B13D9062A11D00A4AFF23137032
:102000000A490B7000230A490B700A490B700A49F0
:102010000B700A490B70536C23F0200353640020AB
:1020200008BD00BF940F00249C620224840D00248C
:102030008C0E00247C0C0024C8910224D49102242C
:1020400010B598B01D4C002207A920462CF055FB76
:1020500000220CA920462CF076FB9DF81C300F9333
:102060009DF81D300E939DF81E300D939DF8323073
:1020700010939DF831309DF8332064321292013B69
:1020800011930DA85CF016FECDE9160116A85CF0C0
:1020900063FB014600240094019402940394049489
:1020A00005948DF8184068465DF02DFBFFF770FC35
:1020B000FFF772FF204618B010BD00BF54E30224A2
:1020C00038B50446431E142B00F2DA80DFE813F023
:1020D00015003600D800D800D800D800D800D800A5
:1020E000D800D800D800D800B600CB00D800D8005F
:1020F000D200D700D80020002B00644A9379DBB2CD
:1021000012789A4200F0BB80604B9A791A70B6E060
:102110005F4B9B78032B40F0B2805D4B00229A709E
:1021200013F0B0FFABE05A4BDB78032B40F0A780F5
:10213000574B0022DA7013F0A5FFA0E0554B0122A7
:1021400083F85020544A9379DBB21278934200F01E
:102150009680514B9B79DBB2062B03D0032A20D00B
:10216000042A39D04C4B9B79DBB2032B47D04A4B26
:102170009B79DBB2042B53D0474B9B79DBB2042B0A
:102180000CBF22460122444B83F8F0209B79DBB23E
:10219000032B18BF0124404B83F8F1409A791A7041
:1021A0006DE03C4B1B7E2BB93B4B9B79DBB2032B89
:1021B000DDD128E0394AA2F13C05111F284601F083
:1021C0003EFB6B6D03446B6500232B76324B9B7992
:1021D000DBB2032BCBD116E02E4B93F83430002B1F
:1021E000C0D02E4D2A46291FA5F1200001F027FB63
:1021F000EB690344EB61002305F8083CB2E7254B8B
:102200001B7E002BB8D1234B9E4603F1380CBCE853
:102210000F00AEE80F009CE807008EE80700ABE770
:102220001C4B03F11C0E03F1380CBCE80F00AEE8A8
:102230000F009CE807008EE807009DE7134AD3795A
:1022400052789A421BD0114A5370072B06D0062BA6
:1022500015D10E4BFF22DA715A7010E01346FF229F
:10226000DA715A700BE0094BDA789B78934201D00F
:10227000064B9A700A4A936823F40043936038BD72
:10228000014608485BF092FFF9E700BF940F002475
:1022900014910224A0100024840D0024DC100024DA
:1022A000A09102241832080808B5431E0D2B40D80F
:1022B000DFE803F0071A3F3F3F3F3F3F3F3F3F3FCD
:1022C00024371E4A9379DBB212789A4202D01B4B14
:1022D0009A791A701A4B9B78032B2ED1184B002237
:1022E0009A7013F0CFFE28E0164A9379DBB2127889
:1022F0009A4222D0134B9A791A701EE00F4AD37972
:1023000052789A4219D00D4A5370072B05D0062BEC
:1023100013D10A4BFF22DA710FE01346FF22DA7164
:102320000BE0064BDA789B78934206D0034B9A7009
:1023300003E0014604485BF039FF08BD8C0E002421
:10234000149102247C0C002418320808514B587E4A
:10235000012803D002283AD0FF2070474E4A137854
:102360000133DBB21370032B2CD8DFE803F0020A31
:1023700013234A4A9379DBB212789A4208BFFF20AE
:10238000704746498A79D2B20978914214BF1846FB
:10239000FF207047414B1B78032B04D03E4B00229B
:1023A0001A70FF2070473D4B9B79DBB2032B08BFAF
:1023B000FF207047394A9379DBB212789A4208BFFE
:1023C000FF207047344B00221A70FF207047324BB9
:1023D00018780130C0B2187001283AD0022844D0D1
:1023E00000284DD12D4A9379DBB212789A424CD114
:1023F0002A4B9B79DBB2022B0BD0284B9B79DBB2AB
:10240000032B1CD0254B9B79DBB2012B1CD0FF206A
:102410007047234B1B78002BEFD1204A536C43F0BD
:102420000203536401231F4A13701F4A1370194B90
:102430001B8D3C339BB21D4A1381FF207047164B06
:1024400001221A70FF207047154B00221A70FF20DE
:102450007047124A9379DBB212789A4200D07047E3
:102460000D4B02221A70FF2070470C4A9379DBB2A1
:1024700012789A420BD0084B00221A700120704744
:10248000054B00221A70FF20704701207047FF2083
:10249000E5E700BF686902249B0B0024840D00243B
:1024A0000000002452130024A40B0024380C002444
:1024B00010B5624BDA795B789A4240D1604B1B7859
:1024C00013F0200F3BD15D4AD178927891423ED1F2
:1024D00013F040043BD159498A79D2B2097891422C
:1024E00033D1584A527E002A37D157498A79D2B21D
:1024F00009788A4200F0998013F0010431D1CB1E93
:10250000DBB2012B32D9504B9B79DBB2042B00F0AC
:102510008E804D4B9B79DBB2052900F08A80032B1E
:1025200040F08780484B5B6C13F0100F00F0838005
:10253000454A536C23F010035364012405E0404ADC
:10254000137823F0200313700524204610BD23F0D8
:1025500040033B4A13700624F7E7FFF7F7FE0446F3
:10256000F3E723F00103364A1370EEE7364B9B790D
:10257000DBB2092B27D0344B9B79DBB2062B2BD057
:10258000324B1B78DBB2062B26D02F4B9B79DBB26C
:10259000082B2AD02C4B9B79DBB2042BB9D1294BC9
:1025A0005C7A012C37D12A485BF070FE264B5B6CBD
:1025B00013F0100F21D0244B5A6C22F010025A64F1
:1025C00006229A71C1E7204A536C43F00403536416
:1025D000204B00221A709CE71B4A536C43F0040303
:1025E00053641C4B00221A7093E71B4B9A6842F00D
:1025F00002029A6004221A708BE7174B01221A70AC
:102600009A6842F002029A600F4A536C43F010033A
:102610005364FF2499E711485BF038FE0A4B04220B
:102620009A7101240C4B1C708FE7FF248DE7FF2467
:102630008BE7012489E7FF2487E700BF940F00247C
:10264000A00B002468690224840D00244F13002489
:102650004432080852130024A0910224783208085A
:1026600008B531B1012920D01C485BF00FFE1C4891
:1026700008BD0138082816D8DFE800F0052B070947
:102680000B0D0F1113001748F2E71748F0E7174832
:10269000EEE71748ECE71748EAE71748E8E710487D
:1026A000E6E71648E4E70E48E2E7013808280ED8C6
:1026B000DFE800F005111111111107090B0009489D
:1026C000D6E70D48D4E70648D2E70C48D0E70448DF
:1026D000CEE70B48CCE70B48CAE700BF2433080815
:1026E00004330808AC320808C4320808D03208089D
:1026F000DC320808EC320808F83208081033080801
:1027000018330808B832080810282AD8DFE800F083
:1027100013092B0B0D0F111517191B1D1F21232535
:1027200027001248704712487047124870471248F5
:102730007047124870471248704712487047124855
:102740007047124870471248704712487047124845
:10275000704712487047124870471248704709483E
:102760007047084870471048704700BF5433080846
:102770008433080894330808A4330808B4330808DD
:10278000C8330808D0330808DC330808F0330808D9
:10279000FC330808103408082434080834340808C6
:1027A00044340808543408086C33080810B504464B
:1027B00001464A485BF0FAFC142C14D8142C10D8AB
:1027C000DFE804F0600D88585A5C5E626466686AEF
:1027D0006C6E70727A7C7E808200414877E041485E
:1027E00075E0414873E0A4F69F039BB21C2B73D89D
:1027F000A4F69F041C2C69D801A353F824F000BF51
:10280000B1280208AD280208CD280208CD28020808
:10281000CD280208CD280208CD280208DB270208AF
:10282000CD280208CD280208CD280208CD280208AC
:10283000CD280208CD280208CD280208CD2802089C
:10284000CD280208CD280208CD280208CD2802088C
:10285000D1280208CD280208CD280208CD28020878
:10286000CD280208CD280208CD280208CD2802086C
:10287000B52802081D482AE01D4828E01D4826E02A
:102880001D4824E01D4822E0174820E01C481EE0B7
:102890001C481CE01C481AE01C4818E01C4816E0C4
:1028A0001C4814E01C4812E01C4810E01C480EE0D4
:1028B00017480CE016480AE01A4808E01A4806E0F3
:1028C0001A4804E01A4802E01A4800E0064810BD21
:1028D0001948FCE71948FAE70348F8E7E034080824
:1028E0007034080854330808D033080884330808C3
:1028F00094330808A4330808B4330808C833080818
:10290000DC330808F0330808FC33080810340808E2
:1029100024340808343408084434080854340808B7
:102920008434080894340808A8340808B434080823
:10293000C4340808D4340808603408086C33080824
:102940000A281BD8DFE800F0061C080A0C0E10123B
:10295000141618000B4870470B4870470B48704717
:102960000B4870470B4870470B4870470B4870473F
:102970000B4870470B4870470B4870470448704736
:102980000A4870470835080828350808343508080B
:102990003C350808443508085035080858350808FB
:1029A000603508086C3508087C35080818350808B3
:1029B000072815D8B0B10138062807D8DFE800F09D
:1029C000041408060A0C0E000848704708487047AF
:1029D00008487047084870470848704708487047DB
:1029E0000348704702487047064870478C3508080E
:1029F00098350808A0350808AC350808B835080827
:102A0000CC350808D83508080138102818D8DFE870
:102A100000F009171717171717171717190B0D0FAE
:102A20001113150008487047084870470848704758
:102A3000084870470848704708487047084870477A
:102A40000448704707487047E8350808003608080A
:102A500010360808203608082836080834360808D2
:102A6000E0350808F43508080346042807D005288F
:102A700007D00548054A032B18BF10467047044885
:102A800070470448704700BF443608083C350808C2
:102A90004C360808583608081B4B9B79DBB2022BD2
:102AA00023D0194B9B79DBB2032B20D0164B9B799B
:102AB000DBB2042B1DD0144B9B79DBB2052B1AD053
:102AC000114B9B79DBB2062B17D00F4B9B79DBB2F6
:102AD000072B14D00C4B9B79DBB20A2B11D00A4B7D
:102AE0009879003818BF01207047002070470020F7
:102AF000704700207047002070470020704700207A
:102B000070470020704700BF840D00249A4B5B780B
:102B1000012B40F06C8230B583B0984B9B78DBB2D0
:102B2000032B25D0954B9B78DBB2042B22D0934B03
:102B30009B78DBB2063B18BF0123914A127842B161
:102B40008D4A1278012A17D0032A32D0022A00F0C7
:102B5000A6808C4BDB79032B00F0DE8100F2EC8049
:102B6000012B68D0022B00F0F581002003B030BDAE
:102B70000023E2E70023E0E7834A127802B913B9A1
:102B80000BF09AFBE5E7804B01221A707A487F4BE5
:102B900001937F4B009383880622002110440BF0A1
:102BA00085FA0823754A9370764A9371794A93712E
:102BB000CFE7754A127802B94BBB002AC9D024F07E
:102BC0001DFA754B1B68C01A0028CEDB734D29789F
:102BD0000131C9B22970684CA27871485BF0E6FAFD
:102BE00009F03AF9694A6A49A01D09F0E7FE297817
:102BF000A3788B4248D80023634A13706370614BFB
:102C00000222DA71024667485BF0D0FAA1E75E4B18
:102C100001221A70614B00221A7024F0EFF95E4B0A
:102C200018600823554A9370564A9371594A937114
:102C3000544B0122DA71534B5B78012B95D14E4BEB
:102C40001B78022B00F0EA80032B00F02681012B79
:102C50008BD1554B1B7823B1544B1B78002B00F0C4
:102C6000B580534B1B78002B3FF47FAF51480FF0DA
:102C700087FA002800F0C1800823404A9370414A37
:102C80009371444A937170E724F0B8F93A4B9B88EA
:102C90004FF47A7202FB03033F4A136059E73A4A42
:102CA000127802B95BBB002A3FF453AF24F0A6F9B7
:102CB000414B1B68C01A0028FFF657AF3F4D2978DB
:102CC0000131C9B229702C4CA2783D485BF06EFAF4
:102CD00009F0C2F82D4A2E49A01D0BF0F7FD297806
:102CE000A3788B421DD80023274A13706370254BAD
:102CF0000222DA71024633485BF058FA29E7224B88
:102D000001221A702D4B00221A7024F077F92A4BF9
:102D100018600823194A93701A4A93711D4A9371D7
:102D200086E724F06BF9144B9B884FF47A7202FB10
:102D30000303214A13600CE7FF2B7FF416AF154BFA
:102D40009B79DBB2092B09D0124B9B79DBB2082BA4
:102D500004D0104B9B79DBB2012B07D1094A012328
:102D6000D3711949CB7182F8ED30FEE6FFF794FE7E
:102D700000283FF4FAAEF1E79C620224001100241F
:102D80003ADC0224940F0024990B00240DE502087C
:102D900009E50208840D0024940B0024980B0024FC
:102DA000603608087C36080839DC02249A0B0024B7
:102DB00038DC0224A26202248C0B0024900B002435
:102DC000AC360808C83608088C0E00240124894B4C
:102DD0001C70C82024F018F92146874820F002F919
:102DE000864A03235370082385498B709371854A63
:102DF00093710A2024F008F9B7E6804B0222DA71B9
:102E000008229A71802200217F485BF00BFC7F4BE7
:102E1000002283F8382013F01BF9A6E67C4B1B78C0
:102E200013B1744B1B7883B17A4B1B78002B3FF4A2
:102E30009CAE71480EF0AEFEF0B10823704A93705C
:102E40006E4A93716F4A93718FE6C82024F0DCF8C4
:102E50000121694820F0C6F8664B01221A70674AC2
:102E600003235370082366498B709371654A9371ED
:102E70000A2024F0C9F878E60223604AD371664A32
:102E8000D3718022002160485BF0CCFB5F4B0022B5
:102E900083F8382013F0DCF867E65D4B1B7813B13C
:102EA000544B1B7883B15B4B1B78002B3FF45DAE1A
:102EB00051480FF0DBFBF0B10823514A93704F4AA1
:102EC0009371504A937150E6C82024F09DF8032175
:102ED000494820F087F8474B01221A70474A0323DC
:102EE0005370082346498B709371464A93710A20A8
:102EF00024F08AF839E60223404AD371464AD37156
:102F00008022002140485BF08DFB404B002283F87B
:102F1000382013F09DF828E6384B5B78032B7FF4BC
:102F200024AE3C4B1B782BB10523344AD3713A4A6B
:102F3000D3711AE6364B1B78002B3FF416AE374B95
:102F40001B78002B3FF411AE05232C4AD371324A73
:102F5000D3710AE6324B9B782BB3314A92883149C0
:102F6000098891420BD325480121C1712A4CE17196
:102F70004170013B2A498B702A4B00211980294B53
:102F80001B8829490988994203D11A4B00221A70DB
:102F9000EBE525490B80D31A9BB221498978234858
:102FA0005BF004F9F1E71A4B1B78002B7FF4DDADE1
:102FB00000241B4B5C70114A5470FF23D371012312
:102FC0009371104A93711A4A1370802221460E4859
:102FD0005BF028FB0D4B83F8384013F039F81548A7
:102FE0005BF054F914485BF051F9FEF78BFD0020BB
:102FF000704700BF9A0B0024A2620224940F0024A1
:1030000000110024840D0024236E02246491022404
:1030100039DC022438DC02248C0E00248ECB0224FE
:103020009C6202249E0B00249C0B0024F8360808A6
:103030004F130024543708089037080810B598B08B
:10304000214C002207A920462BF057FB00220CA997
:1030500020462BF078FB9DF81C300F939DF81D3017
:103060000E939DF81E300D939DF8323010939DF80D
:1030700031309DF8332064321292013B11930DA838
:103080005BF018FECDE9160116A85BF065FB014662
:1030900000230093019302930393049305938DF807
:1030A000183068465CF02FFBFEF73EFDFEF7C8FFC8
:1030B00022F0CCFADDE91601FFF728FDFEF76CFFE0
:1030C00022F0C4FA18B010BD54E3022410B584B045
:1030D00004464FF0FF330093032303AAE0211C486A
:1030E00028F020FB78BB9DF80EC09DF80C10CB4358
:1030F000DBB2082207E0400080F03100C3B2013AA1
:1031000012F0FF0205D058B20028F4DB5B00DBB2FE
:10311000F5E79DF80DE08EEA0303082007E0520072
:1031200082F03102D3B2013810F0FF0005D05AB25C
:10313000002AF4DB5B00DBB2F5E79C4505D14EEAE3
:10314000012EA4F800E004B010BD0120FBE700BF91
:10315000D0DB022400B585B0030A8DF80C308DF861
:103160000D004FF0FF330093022303AAE021034830
:1031700028F002FA05B05DF804FB00BFD0DB0224A2
:103180002DE9F04F85B005460E4690F803E00EF5A8
:10319000FA6EBEF5FA6F26D94FF4FA624FF0000CC2
:1031A0003A4C4FF4C871642001270FE0A4FB02835E
:1031B000DB0901FB13239BB2B3FA83F35B0903F230
:1031C0006D139C44013292B296450ED012F0030F5B
:1031D000ECD1A4FB02835B0900FB13239BB2002B01
:1031E000E4D03B46EBE74FF0000C95F801A0BAF1B4
:1031F000010F36D9254BA3FB0E394FEA591B642327
:1032000003FB1BEB1FFA8BFB4FEAD9194FF4C87372
:1032100003FB19E91FFA89F90DF1040801231C4F7A
:1032200044460EF0030E0BE0B9F1000F17D098F8EA
:1032300000209444013308F10108DAB2524510D25B
:1032400097E8070084E80700DAB2022AEFD1BEF15E
:10325000000FE9D1BBF1000FE6D01D22E9E71D22E6
:10326000E7E732787378C3EB03139B004FF4616197
:1032700001FB0233B2781344AA78013A624405484C
:1032800000FB023005B0BDE8F08F00BF1F85EB5199
:10329000CC3708088051010070B582B006460D4653
:1032A00043F21750FFF756FF0446012023F0ACFE0F
:1032B00047F6A240FFF74EFF0443E4B20F2023F08D
:1032C000A3FE0DF10600FFF701FF0443E4B201A8DD
:1032D000FFF7FCFE0443E4B24BF29800FFF73AFF1D
:1032E00044EA000313F0FF0033D1BDF8063007EEC7
:1032F000903AF8EE677A9FED187A67EE877ADFEDFD
:10330000176A67EEA67A9FED167A77EEC77AB2EE65
:10331000027A67EE877AB1EE046A87EE867ADFED8D
:10332000117A77EE277AFCEEE77A17EE903A33803F
:10333000BDF8043007EE903AF8EE677A9FED0A7A0E
:1033400067EE877A67EEA67AFCEEE77A17EE903A98
:103350002B8002B070BD00BF00002F4300008037FB
:1033600000003442000000420000C84208B5064B8D
:103370001B78064A13700649064A012B08BF1146FE
:1033800005485AF013FF08BD9D1000249E1000242C
:10339000E4370808DC370808EC37080808B5294B7B
:1033A0001B7893BB284B93F85E0083F82000D3F87A
:1033B0005F20C3F82120D3F86320C3F82520D3F879
:1033C0006720C3F82920D3F86B20C3F82D20D3F849
:1033D0006F20C3F8312093F8732083F835205A6F9B
:1033E000C3F8362093F8782083F83A20D3F8792070
:1033F000C3F83B20154B00221A701549154B90421B
:1034000008BF194614485AF0D1FEFFF7AFFF134B1F
:103410001B78012B0ED00C4B93F820303BB1104998
:103420000B4A10485AF0C2FE08BD0F4900E00C4993
:10343000084AF6E7044B5B78002BF6D00A49044AA9
:10344000EFE700BF9F100024105B02249D100024B2
:10345000103808080C380808183808089E1000248E
:10346000E437080878380808DC37080808B5934BB3
:103470009B78DBB2042B0DD0904B9B78DBB2032BF7
:1034800008D08F4B1B78DBB2012B00F0FE808C4BF9
:103490001B78F9E08B4B1A78012A25D08A4BD3F898
:1034A00029008A49086393F83A30C3EB03139B0061
:1034B0001846874909688B422AD8834B93F82030F5
:1034C000B3FA83F35B0933B314F024FF7D4B1B780D
:1034D000012B7D4B0CBFD3F80230D3F8213007EE1F
:1034E000903A20EE270A29E0774BD3F80A00774973
:1034F0000863DB7EC3EB03139B001846744909681D
:103500008B4205D8704B5B78B3FA83F35B09DAE73B
:103510009FED700A12E06E4B1B68012A31D06A4A97
:10352000D2F82520002A40F0BF80DFED6A7A664B92
:10353000D3F8213000EE103A20EE270A634B83EDDA
:103540000D0A604B1A78012A29D05F4B93F8353069
:10355000C3EB0313980060490968B1EB830F7CD972
:103560005D4B1B685849D1F8311000294CD01B1A0B
:103570000B44013BB3FBF1F307EE903AF8EE677AA8
:1035800044E0514AD2F80620002A40F08380DFED63
:10359000517A4D4BD3F8023000EE103ACCE74A4B4B
:1035A0009B7DC3EB031398004B490968B1EB830F74
:1035B00050D9494B1B684449D1F8121011B9DFEDBD
:1035C000457A08E01B1A0B44013BB3FBF1F307EE0D
:1035D000903AF8EE677A3C4BD3F80E1007EE101ACB
:1035E00067EE877A3949C1ED0E7AD3F8173007EEC6
:1035F000103AB4EEE77AF1EE10FA25D4324BD3F854
:103600000A3007EE903A34E0DFED327A2E4BD3F8F1
:103610002D1007EE101A67EE877A2C49C1ED0E7A4D
:10362000D3F8363007EE103AB4EEE77AF1EE10FA3E
:103630001AD5254BD3F8363007EE903AF5EE407A9E
:10364000F1EE10FA10D00AE0B5EE407AF1EE10FA81
:1036500005D1D3E79FED1F7A01E09FED1E7A1B4B4A
:1036600083ED0E7A012AC9D0174BD3F8293007EE23
:10367000903A164B93ED0D7A77EE877A93ED0E7AAA
:1036800077EE877AC3ED0F7A08BD104B00229A635C
:103690005A63F9E7013B1B1A1344B3FBF2F307EE3D
:1036A000903AF8EE677A74E7013B1B1A1344B3FBB8
:1036B000F2F307EE903AF8EE677A38E7001100244B
:1036C0004F1300249E100024105B0224840D00245C
:1036D00048160024000000004C16002400B583B0FA
:1036E0004F4B1B78012B63D94E4BD3F8292007EEA3
:1036F000902AB7EEE77A53EC172B4B494FF4C640AC
:1037000002F08AFB464B1B78012B66D0454B93F8A1
:1037100020204649464B002A18BF1946414BD3F892
:10372000212007EE102AB7EEC77AD3F82530414A98
:10373000A2FB03235B09009353EC172B46F24030A6
:1037400002F06AFB364B1B78012B5BD0354BD3F86C
:103750002D2007EE102AB7EEC77AD3F83130354A5C
:10376000A2FB03235B09009353EC172B30494FF462
:10377000C74002F051FB2A4B1B78012B294B0CBF91
:10378000DA7E93F83A202C4946F2204002F044FBBE
:10379000234B1B78012B234B0CBF9A7D93F83520CC
:1037A000254946F2604002F037FB03B05DF804FBA8
:1037B0000D2002F091FA1A4B1B78002B46F2205193
:1037C00014BF0A200B2002F0C1FA154B1B78012B05
:1037D0008AD1144BD3F80A2089E7124B5A7813493F
:1037E000134B002A18BF19460E4BD3F8022007EEE0
:1037F000102AB7EEC77AD3F806300E4AA2FB03238D
:103800005B0998E7074BD3F80E2007EE102AB7EEB6
:10381000C77AD3F81230074AA2FB03235B09A2E759
:103820009E100024105B0224C4380808B838080829
:10383000A838080889888888D4380808704738B5B7
:10384000054608461146FFF79BFC0446291D2846FD
:10385000FFF796FC84422CBF201A002038BD0000E0
:1038600008B50021024B19705C225AF0DBFE08BD3E
:103870009C100024F0B583B004460E461546037E26
:103880003BB994F8343063B9244B1B78B3B103B01F
:10389000F0BDFFF7D4FF636D034463650023237617
:1038A000EFE72A46314604F11C00FFF7C8FFA36D7D
:1038B0000344A365002384F83430E5E7636DA56D08
:1038C000174EA6FB03125209C2EB0212154FA7FBBB
:1038D0000301C90A4FF4616404FB1130A6FB00C068
:1038E0000093A3EB820342090F485AF05FFCA6FB4A
:1038F00005235B09C3EB0313A7FB0521C90A04FBDE
:103900001152A6FB02620095A5EB830352090748FA
:103910005AF04CFC014B01221A70B8E79C100024AD
:1039200089888888C5B3A291E03808080C3908084E
:1039300010B4824A536D906D814A92F800C0BCF178
:10394000010F23D07F4AD2F829107F4C216392F8CF
:103950003A20C2EB02129400B3EB820FC0F0D38086
:10396000784A92F82020002A00F08E80754AD2F81A
:103970002520002A40F0CD809FED747A714BD3F85A
:10398000213007EE903A67EE877A87E06D4AD2F8E9
:103990000A106D4C2163D27EC2EB02129400B3EB8D
:1039A000820FC0F09980674A5278002A63D0654A36
:1039B000D2F80620002A40F0B6809FED647A614B71
:1039C000D3F8023007EE903ADDE75F4B00229A63AE
:1039D0005D4B07EE101A77EE877A93ED0E7A77EE4D
:1039E000877AC3ED0F7A5DF8044B7047C31A13440E
:1039F000013BB3FBF2F307EE103AB8EE477A514BB6
:103A0000D3F80E2006EE902A27EE267A4E4A82ED53
:103A10000E7AD3F8173006EE903AB4EEE67AF1EE6D
:103A200010FAD5DDF5EE406AF1EE10FAD0D01EE0C6
:103A30009FED467A434BD3F82D2006EE902A27EED1
:103A4000267A414A82ED0E7AD3F8363006EE903A65
:103A5000B4EEE67AF1EE10FABADD3A4BD3F836302E
:103A600007EE103AB5EE407AF1EE10FAB0D0364BD0
:103A7000C3ED0E6AACE7364B93ED107A314BD3F8B9
:103A8000023007EE903A07E0314B93ED107A2D4B60
:103A9000D3F8213007EE903A67EE877A2A4BC3EDD0
:103AA0000D7ABCF1010F1CD0264B93F83520C2EBE8
:103AB00002129300B0EB820F87D9224AD2F831204C
:103AC000002AB5D0C31A1344013BB3FBF2F307EE4F
:103AD000103AB8EE477AADE7DFED1C7A1A4BC3ED2A
:103AE0000D7A184B9A7DC2EB02129300B0EB820F55
:103AF0007FF66BAF134AD2F81220002A7FF476AF1C
:103B00009FED127A7BE7DFED117A0F4BC3ED0D7A53
:103B1000CAE7013B1B1B1344B3FBF2F307EE903AD9
:103B2000B8EE677A2AE7013B1B1B1344B3FBF2F3A1
:103B300007EE903AB8EE677A41E700BFA010002484
:103B40009E100024105B0224840D0024000000005D
:103B5000F0710224F8B5642828BF64200A4B1B8842
:103B6000984210D90546084C41F202271926013324
:103B700098B22080394602F0E9F8304623F044FA42
:103B80002388AB42F3D3F8BD7812002438B504463D
:103B90000368B3F1804F04D02268284B9A4225D0A5
:103BA00038BD037F012BFBD100212CF0A8FC05467A
:103BB0000028F1D0042120462CF0A1FC07EE900A49
:103BC0001F4AF8EE677A9FED1F7A67EE877A06EE56
:103BD000905AB8EE666AC7EE866A37EE667A82ED6C
:103BE000017A194BB3FBF5F31360D5E7237F012B63
:103BF000D6D1002120462CF082FC144B1B68834256
:103C000013D8C31A114A10609BB107EE903AF8EE30
:103C1000677ADFED0F6A86EEA77AFCEEC77A17EEB9
:103C2000903A5B08064A9360BAE7C3F580330344D1
:103C3000E8E7034B00229A60B2E700BF00040040AF
:103C4000841200240000C84200D8B8057412002471
:103C5000001BB74C094B1B8883420ED0074B1880C2
:103C6000074BA3FB0023DB08064A137000EB400060
:103C7000C000054B5863054B188070477212002432
:103C8000CDCCCCCC8012002400080040821200244D
:103C900010B5094C002120462DF08AFB0421204656
:103CA0002DF096FA002105482DF082FB00210448F2
:103CB0002DF0A6F910BD00BF04E60224B8E50224E9
:103CC0006CE50224104B1B78E3B1104A13880133D2
:103CD0009BB21380B3F5AF7F04D80D4B4FF4007245
:103CE0009A617047B3F52F7F04D8094B4FF00072EB
:103CF0009A617047054B00221A80034A1378013BF2
:103D0000DBB21370704700BF010000249012002442
:103D100000040258024B1870024B00221A807047B0
:103D20000100002490120024D1B100B58C46411E40
:103D30008C444FF0FF304FF0080E0D4A01E0614512
:103D400012D011F8013F5840734610F0010F14BF14
:103D500082EA50004008013B13F0FF03F5D1EEE783
:103D60004FF0FF30C0437047C0435DF804FB00BF15
:103D70002083B8ED08B58021104827F0B1F920B9AB
:103D80000F4A137843F0010313704FF480710B480E
:103D900027F0A6F920B90A4A137843F002031370FA
:103DA0004FF40071054827F09BF920B9044A1378B5
:103DB00043F004031370024B187808BD001002583A
:103DC0007012002438B5174B1B78012B15BF4FF428
:103DD00096644FF4C8744FF49675C82523F00EF915
:103DE000114B1B7843B9114B18600F4B01221A700D
:103DF0000F4B01229A6138BD0C4B1B68C01AA042C0
:103E000009D32344021B194623441046121B844243
:103E1000F9D9064B19608542EAD8054B4FF4803238
:103E20009A61E8E7D49102247A1200247C120024DB
:103E30000018025808B5FFF7C5FF08BD38B52DEDCD
:103E4000028B20F0C7FA83485AF020FA322023F080
:103E5000DBF80520FFF77EFE01F020FF7E485AF0D8
:103E600015FA322023F0D0F80A20FFF773FE0BF08A
:103E700027FC7A485AF00AFA322023F0C5F80E20BF
:103E8000FFF768FE764C216876485AF08FF9764B3A
:103E9000196876485AF08AF9754B196875485AF0CE
:103EA00085F9226874494FF4505002F07DF813F000
:103EB00095FA002868D0714B1A686F494FF4515039
:103EC00002F072F81220FFF745FE6D485AF0DEF955
:103ED000FDF758FB1720FFF73DFE6A485AF0D6F968
:103EE000FFF7D6FE1B20FFF735FE67485AF0CEF9E4
:103EF0004FF47A70FFF7AEFE2020FFF72BFE6348E9
:103F00005AF0C4F913F0F6FD2420FFF723FE6048B1
:103F10005AF0BCF912F07CFC2920FFF71BFE5D482B
:103F20005AF0B4F913F09AF82D20FFF713FE5A480F
:103F30005AF0ACF907F0B2FA3220FFF70BFE5748FF
:103F40005AF0A4F9FDF792FD3720FFF703FE54481D
:103F50005AF09CF912F068FA3B20FFF7FBFD51483C
:103F60005AF094F901F030FB4020FFF7F3FD4E4882
:103F70005AF08CF94D4B93F868396BB1012B5FD037
:103F80004B485AF083F90AE04A4B1A683A494FF411
:103F9000515002F009F895E747485AF077F9474839
:103FA0002CF054FA4420FFF7D5FD21F04FFB444B91
:103FB000D3ED097A9FED437A67EE877AFCEEE77AD4
:103FC000C3ED167A4FF4FA7023F01EF84920FFF77C
:103FD000C1FD3D4B00229A73DA730321597383F8B4
:103FE000002183F80121394B5B78FF2B2CD0FFF7A0
:103FF000C1FE032814BF00200120334B83F8EC00DE
:104000004D20FFF7A7FD324B986A324B03F11801A0
:1040100013F8012FFF2A65D18B42F9D100242C4BD4
:104020009C6212F015F82C4B1C605C609C60DC609C
:104030001C615C6112F026F828485AF027F954E018
:1040400027485AF023F9AAE7204BFF2283F8ED20F6
:10405000CDE700BF4C3908086839080884390808DA
:1040600054000024A839080844000024D039080866
:1040700050000024F8390808A83F08084800002428
:10408000203A08084C3A08087C3A0808AC3A080874
:10409000E03A0808103B08083C3B0808683B080861
:1040A000983B0808B83B0808E43B08080C7A012450
:1040B000783C08084C000024183C080820E502243D
:1040C000F071022400401C46840D0024940F00244B
:1040D000649102244791022448910224B03C0808CC
:1040E000483C0808B0F1FF3F98D05220FFF732FD5E
:1040F000714B93F82B30002B40F08C805620FFF74B
:1041000029FD6E4B9B6A002B40F0AB806C4B042268
:104110001A735B20FFF71EFD6A485AF0B7F80CF0DF
:1041200075FB694B9B7D33B90823684A9370684AD5
:104130009371634A9371644BDB7D23B90823634A0F
:1041400093705F4A93710CF0FBFE5F20FFF702FD56
:10415000322022F059FF1FF033FE6220FFF7FAFCF5
:10416000322022F051FF554BDB7BC3F3400213F0AA
:10417000020F0DD1514BDB7B13F0080F08D14F4BD1
:10418000DB7B13F0040F03D14C4943F00403CB73E2
:10419000504B1A70494BDB7BC3F380014E4A1170C0
:1041A000C3F3C0014D4A117013F0020F4C494D4B3F
:1041B00018BF19464C4859F0F9FF404BDB7B13F010
:1041C000040F4749474B18BF1946484859F0EEFFBE
:1041D0003A4BDB7B13F0080F4149424B18BF19469D
:1041E000434859F0E3FF43485AF050F81FF000FFEE
:1041F0006420FFF7AFFC404B002283F8BA202E4B1F
:1042000093F82A30A32B41D1012001F065FDBDECCC
:10421000028B38BD394C94ED098A274DEB6A07EEC5
:10422000903A38EE678A36485AF030F8EA6A07EE74
:10423000902AB7EEE77A53EC172B324859F0B6FFC5
:10424000D4ED097AB7EEE77A53EC172B2E4859F0E4
:10425000ADFFB7EEC87A53EC172B2C4859F0A6FFE8
:104260004CE72B48826842F00202826043600523DB
:1042700000F80C3B27495BF046FA134B5B7E002BA2
:104280003FF447AF0E4B08221A7342E70E4CD4F8A6
:104290002416214859F08AFF4FF0FF33C4F8243622
:1042A0001E4A5360044BA32283F82A2012F046FBD7
:1042B00011F0E8FEA8E700BF1491022464910224E3
:1042C000840D0024303D0808686902240011002490
:1042D000940F00243ADC022439DC022438DC022466
:1042E0004039080838390808583D0808883D08084A
:1042F000B83D0808E83D0808C81C0224F0710224F3
:10430000DC3C0808EC3C0808043D08081C3D080893
:10431000A091022448910224043E0808F4250224B6
:1043200003681944016003790133DBB20371172B71
:1043300009D9054BA3FB0131C1F30F11C1801180D5
:104340000023036003717047ABAAAAAA3C4A137802
:104350000133DBB21370092B14D9394B00221A70C8
:10436000384B9B89384A116811FA83F31360374A36
:1043700013780133DBB21370102B07D0344B18784D
:10438000C0B27047324B1878C0B270472E490B68E4
:10439000C3F30F132F4A138000230B602B490B70BC
:1043A00013889BB240F66A62934212D9294B1B884C
:1043B0009BB240F66D7293420BD8254B01221A70C6
:1043C000234B1B78DBB20C2BD8D1234B0C221A7059
:1043D000D4E7204B1B889BB240F6CB4293420AD9CC
:1043E0001C4B1B889BB240F60262934203D8184BC9
:1043F00002221A70E4E7174B1B889BB240F6DC22BE
:1044000093420AD9134B1B889BB240F60742934252
:1044100003D80F4B03221A70D2E70E4B1B889BB2B6
:1044200040F6FC029342CBD90A4B1B889BB240F664
:1044300027229342C4D8064B0C221A70C0E700BF53
:10444000E51200245C130024E0120024DC12002496
:10445000E4120024DA1200244F130024F8B5354B7F
:104460001B780133DBB2012B61D9324B00221A7069
:10447000314C09222146314823F024F9E3899BB2CB
:104480002F4A1380FFF762FF2E4B187067882E4B60
:104490001A6812FA87F71F60E6885A6812FA86F6D9
:1044A0005E6025899A6812FA85F59D60208ADA682F
:1044B00012FA80F0D860A1881A6912FA81F11961A4
:1044C00062895C6914FA82F25A61204C23780133C4
:1044D000DBB22370312B2CD940F21F5303FB07F7BB
:1044E0003F0C1B4C278003FB06F6360C194C26802C
:1044F00003FB05F52D0C184C258003FB00F0000C88
:10450000164C208003FB01F1090C1548018003FBC8
:1045100002F2120C134B1A800B4A002313605360F3
:104520009360D36013615361084A137001E0014A3C
:104530001370F8BDD81200245C1300246CDB022435
:104540006E13002451130024C0120024BC12002456
:104550007A130024781300247613002474130024A3
:10456000721300247013002408B5AA4A137801338B
:10457000DBB21370A8490B6801330B60A7490B68C5
:1045800001330B60A6490B6801330B60A5490B880A
:1045900001339BB20B80A44801680131016012789D
:1045A000013A072A00F28B81DFE812F008002800A8
:1045B0006500B300E0005C016C017E019B4B1B7841
:1045C0000133DBB2092B02D8984A13706FE1974B85
:1045D00000221A70964B1B6913F4804F40F06781DC
:1045E000944B01221A70944A0323D37093494B6C65
:1045F00043F001034B640923937058E1904B93ED12
:10460000077ADFED907AB4EEE77AF1EE10FA0CDB80
:10461000884B03221A70884A0921D1708748436C5D
:1046200043F001034364917041E1854B93ED077AB8
:10463000DFED857AB4EEE77AF1EE10FA17DB784B0E
:104640001A6842F210739A4240F23181744B42F67A
:10465000F8221A60774B03221A70774A0921D17029
:104660007648436C43F00103436491701FE16C4B47
:1046700000221A601BE1724AD2ED077AF5EE407A09
:10468000F1EE10FA00F0138192ED077ADFED6F7A08
:10469000B4EEE77AF1EE10FA16D841F2873293427F
:1046A00040F205815F4B41F2EC321A80614B0222ED
:1046B0001A70614A0E23D37060494B6C43F00103BA
:1046C0004B6409239370F2E05D4A92ED077ADFEDC7
:1046D000607AB4EEE77AF1EE10FA16D842F20F7271
:1046E000934240F2E4804F4B42F6F8221A80514B3D
:1046F00002221A70504A0E23D37050494B6C43F07B
:1047000001034B6409239370D1E0464B00221A80C9
:10471000CDE0494B9B78DBB2032B40F0C8804D4A7B
:1047200013780133DBB213704B4B1B6913F4005F3A
:1047300000F0BD801378DBB2272B40F2B88013461F
:104740001E221A70444B1B6913F4805F40F0AF8047
:10475000384B06221A70384A0323D37037494B6C02
:1047600043F001034B6409239370A0E0344B93EDB5
:10477000067ADFED3A7AB4EEE77AF1EE10FA18DD58
:10478000294B1A6840F6B8339A4240F29080264B83
:104790004FF47A621A60274B04221A70264A0823C3
:1047A000D37026494B6C43F001034B64092393708B
:1047B0007DE0234B93ED067A294BD3ED007AB4EEDE
:1047C000E77AF1EE10FA20DD93ED007AF1EE087A47
:1047D000B4EEE77AF1EE10FA17DD134B1A684EF6D5
:1047E00060239A4263D9104B4EF648621A60114B0F
:1047F00004221A70104A0823D37010494B6C43F0FE
:1048000001034B640923937051E0074B00221A60A7
:104810004DE000BF4C1300243C1300243813002447
:1048200040130024BA12002444130024B9120024B7
:10483000000C02585013002400110024840D0024A1
:10484000F07102240000914300808A430000164367
:10485000000027434E130024001002580000A2421B
:1048600054130024184B1B780BB30723174A1370FB
:10487000174AD37017494B6C43F001034B6409236B
:10488000937014E0144B1B884F2B10D90F4B0B2245
:104890001A700F4A0723D3700E494B6C43F0010383
:1048A0004B640923937002E0084B1B7803B908BDE1
:1048B00000224FF40051094826F018FCF7E7084B96
:1048C00000221A70F3E700BF4B130024501300249A
:1048D00000110024840D00245216002400100258F8
:1048E0004C13002410B53E4B188880B201F0C0FC78
:1048F0003C4CBCEEC00A224610EE103A99B23A483F
:10490000FFF70EFD394B188880B201F0B1FCBCEE08
:10491000C00AA21C10EE103A99B23548FFF700FD0C
:10492000344B188880B201F0A3FCBCEEC00A221DF3
:1049300010EE103A99B23048FFF7F2FC2F4B18886E
:1049400080B201F095FCBCEEC00AA21D10EE103A38
:1049500099B22B48FFF7E4FC2A4B188880B201F08B
:1049600087FCBCEEC00A04F1080210EE103A99B2BE
:104970002548FFF7D5FC254B188880B201F078FC5C
:10498000BCEEC00A04F10A0210EE103A99B22048B7
:10499000FFF7C6FC23889BB96388A1880B43E28894
:1049A00013439BB2DBB10F4B5B88D12B0AD80D4B65
:1049B0009B88D12B06D80B4BDB88D12B0FD901E07C
:1049C000D12BF0D9134B05221A70134A0423D3704C
:1049D00012494B6C43F001034B640923937010BDE3
:1049E00076130024201300241813002478130024C5
:1049F0001013002474130024081300247A130024D5
:104A00000013002472130024F812002470130024F1
:104A1000F01200245013002400110024840D0024FF
:104A200008B5134B1B78B3B1124B1B69C3F380332A
:104A3000114A137022F0E2FA104B1B68C01A0428C6
:104A400006D90F4B4FF000629A61094B00221A7091
:104A5000094B187808BD0A4B4FF400629A6122F0A6
:104A6000CDFA064B1860024B01221A70DCE700BF3A
:104A7000B8120024001002584B130024B412002472
:104A8000000C025808B5324B1B8801339BB2B3F5BA
:104A9000FA7F02D22E4A138007E02D4B00221A80A3
:104AA0002C4A138801339BB213802B4B1B88013394
:104AB0009BB2B3F57A7F02D2274A138008BD264BFA
:104AC00000221A8020F0C2FD244A138801339BB2D1
:104AD0001380234B1B7873B1224A13780133DBB266
:104AE0001370214AD28B9A4208D800231F4A1370B0
:104AF0001C4A137002E01B4B00221A701C4B1B78DF
:104B0000132B03D01B4B1B78132B09D1184A938806
:104B100001339BB29380174A938801339BB29380F1
:104B2000154A13780133DBB21370092B07D91346EA
:104B300000221A70114B9B78DBB2032B05D10E4A71
:104B400013780133DBB21370B8E7FFF769FFF6E7BC
:104B5000EA12002458130024E81200245A130024F7
:104B60004A130024E612002468690224020000248B
:104B7000D4910224C891022434130024001100248B
:104B800008B58B4B1B8801339BB2632B2DD9884B07
:104B900000221A80874B1B78DBB2082B28D0864B6B
:104BA0009B78DBB2092B23D0834B9B78DBB2082B9D
:104BB0001ED0824B9B79DBB2082B19D0804B9B7D9A
:104BC00033B37F4BDB7D1BB37E4B1B78013B082B44
:104BD00000F24F81DFE813F02F007500A3004D01B4
:104BE0004D014D014D014D014401714A13800EE00C
:104BF0004FF47A70FFF72EF800224FF400517248FC
:104C000026F074FA714A536C43F00103536408BDF3
:104C10004FF47A70FFF71EF808236D4A9371664AC5
:104C20009370644A1370694B5A6C42F001025A64E3
:104C300000229A82EBE7674B00221A805D4B1B78BB
:104C4000DBB2062B0FD05B4B1B78DBB2042B20D0E2
:104C50000123584A1370584A93705C4A536C43F0CE
:104C600001035364D3E7594A938A01339BB2938279
:104C700040F61B429342CAD901234E4A13704E4A52
:104C80009370524B5A6C42F001025A6400229A828D
:104C9000BDE700224FF400514B4826F027FA4FF4AD
:104CA0007A70FEF7D7FF0623424A1370424A937088
:104CB00046494A6C42F001024A64474A82F8283069
:104CC000A5E7444B00221A803A4B1B78DBB2062B37
:104CD00015D13E4A938A01339BB2938240F61B4220
:104CE000934294D90223334A1370334A9370374B5B
:104CF0005A6C42F001025A6400229A8287E72D4BD7
:104D00001B78DBB2042B82D002232A4A13702A4A72
:104D100093702E4A536C43F00103536477E72D4B95
:104D200000221A802D4B1B782D4A1278134322D073
:104D3000204B1B78DBB2062B54D1244A938A0133D3
:104D40009BB2938240F61B4293427FF660AF4FF4D2
:104D50007A70FEF77FFF08231D4A9371164A9370FD
:104D6000144A1370194B5A6C42F001025A64002223
:104D70009A829A824BE70F4B1B78DBB2062B31D11C
:104D8000124A938A01339BB2938240F61B429342AC
:104D90007FF63DAF0223074A1370074A93700B4B0F
:104DA0005A6C42F001025A6400229A822FE700BF37
:104DB000B21200244F13002400110024940F002489
:104DC000686902245113002400100258840D002445
:104DD0008C0E0024B0120024F0710224DA8A02241E
:104DE000D98A02242B4B1B78DBB2082B3FF40FAF80
:104DF000294B9B78DBB2092B3FF409AF254B1B787D
:104E0000DBB2042B17D0244B9B78DBB2052B3FF48D
:104E1000FEAE224B1B6913F4005F1F4B0CBF022236
:104E200003229A701B4B03221A701D4A536C43F0E5
:104E300001035364EBE601224FF40051174826F0BA
:104E400055F90323134A1370134A9370154B042228
:104E500083F82820124A536C43F011035364D6E6BA
:104E60000D4B09229A700E4A536C43F001035364B0
:104E7000CDE60D4A138801339BB2138044F61F62BE
:104E800093427FF6C4AE034B08221A70064B0022F1
:104E90001A80BCE64F1300240011002400100258B1
:104EA000840D0024F0710224B012002400000000E0
:104EB00008B52B4BD3ED007AFCEEE77A17EE903A6B
:104EC00013F0FF0327D0052B2AD99A1FD2B22D2A1F
:104ED0002AD9A3F13402D2B21C2A1BD807EE903A89
:104EE000B8EEE77BB0EE045B87EE056B9FED187BB9
:104EF00036EE077BB2EE046B27EE067BBCEEC77B7B
:104F000017EE103A98B2B0F5707F88BF4FF47A7000
:104F1000FEF7A0FE08BD4FF47A70FEF79BFEF9E79E
:104F20000020FEF797FEF5E707EE903AB8EEE77B34
:104F30009FED095B87EE056BB2EE047B26EE077BE7
:104F4000BCEEC77B17EE103A98B2FEF783FEE1E79E
:104F50000000000000005040333333333333E33F6D
:104F600054130024F8B50023974A1360974A13603E
:104F7000974B1B78013B052B00F2EB80DFE813F029
:104F8000060037006300E900E900B900914B1B6996
:104F900013F4005F04D18E4B1B78DBB2042B16D1C7
:104FA00000224FF400518B4826F0A0F84FF47A709D
:104FB000FEF750FE0623864A1370874A937087498E
:104FC0004A6C42F001024A64854A82F828304FF464
:104FD0007A70FEF73FFE834B00221A70824B9B6A69
:104FE000002B40F0B6807D4B04221A73B1E0794B60
:104FF0001B6913F4005F16D000224FF4005175486E
:1050000026F074F80424724B1C70FFF751FF744BA8
:10501000052283F82820704B9C70704A536C43F033
:105020000103536495E0FFF743FF6C4A536C43F070
:10503000010353646C4B9B6A002B40F08A8013463B
:1050400004221A7385E0644B9B78DBB2042B1BD0DF
:10505000644B1B787BBB614B1B7B042B27D0062B3F
:1050600077D101224FF400515A4826F03FF85C4BAB
:10507000042283F82820584B03229A70574A536C15
:1050800043F00103536464E001224FF4005151489E
:1050900026F02CF8524B042283F828204E4B032292
:1050A0009A704E4A536C43F001035364D0E74B4B64
:1050B00005221A734DE0494B5B6C13F0020F02D1CD
:1050C000FFF7F6FE45E001224FF40051414826F07B
:1050D0000DF8434B042283F828203F4B03229A709B
:1050E0003E4A536C43F0010353643E4B00221A7056
:1050F000E6E74FF47A70FEF7ADFD364E00224FF42E
:105100000051304625F0F2FF354F062587F828502C
:10511000324C636C43F00103636400224FF400518E
:10512000304625F0E3FF0823237300224FF400519B
:10513000304625F0DBFF4FF47A70FEF78BFD244BF1
:105140001D70254B9D70636C43F00103636487F809
:105150002850234B93F82830DBB2062B05D01F4B89
:105160005B6C13F0040F05D1F8BD4FF47A70FEF7B5
:1051700071FDF9E7174F00224FF40051384625F032
:10518000B5FF174E062586F82850144C636C43F083
:105190000103636400224FF40051384625F0A6FF56
:1051A0004FF47A70FEF756FD094B1D700A4B9D7047
:1051B000636C43F00103636486F82850636C43F02A
:1051C00001036364D0E700BF3C13002438130024BC
:1051D0004F1300240010025800110024840D0024F5
:1051E000F0710224ED1200246491022410B5964B54
:1051F0001B78013B082B35D8DFE813F0090043008A
:10520000AA004001040134003400340066018F4BD1
:105210001B6913F4005F04D18B4B1B78DBB2042BAA
:1052200016D100224FF40051884825F05FFF4FF45B
:105230007A70FEF70FFD0623834A1370844A937039
:1052400084494A6C42F001024A64834A82F8283059
:10525000824B1B7893B94FF47A70FEF7FBFC804BBE
:1052600000221A60784B1B78DBB2042B05D0794BF7
:105270005B6C13F0040F40F02B8110BDFFF718FE9C
:10528000EDE7724B1B6913F4005F45D0754B1B684B
:10529000B3F5FA7F03D8724B00221A60E2E7714B34
:1052A0004FF416721A6000224FF40051674825F03F
:1052B0001DFF6D4B5B7A012B16D000224FF400517D
:1052C000624825F013FFFFF7F3FD04235E4A1370D5
:1052D000614A052182F828105D4A93705D4A536C3B
:1052E00043F001035364D6E700224FF400515748BE
:1052F00025F0FCFE4FF47A70FEF7ACFC0623524A10
:105300001370534A937053494A6C42F001024A6445
:10531000514A82F82830BEE7504B1B788BB1534B73
:105320001B7893B14FF47A70FEF794FC504A1388BF
:10533000013B9BB21380002BADD14C4B00221A7065
:10534000A9E73220FEF786FCA5E7FFF7B1FDA2E74B
:10535000404B5B6C13F0020F08D03E4BDB892BB93E
:105360003F4B1A6840F2DC539A4221D8FFF7A0FD68
:10537000364B1B6913F4005F40D03E4B93ED007A2F
:10538000F1EE087AB4EEE77AF1EE10FA36D5304B4A
:105390009B78DBB2052B3FF465AF374B1B8801339D
:1053A0009BB242F21072934219D8334A138059E7E4
:1053B0002B4B4FF4C8621A6001224FF4005123486E
:1053C00025F094FE224B03229A70224A536C43F03C
:1053D00001035364204B042283F82820C6E7264BA0
:1053E00042F6F8221A800523174A1370184A937060
:1053F000184A536C43F00103536433E71E4B0022F9
:105400001A802FE71B4B93ED007AF1EE087AB4EE89
:10541000E77AF1EE10FA7FF725AF0D4B9B78DBB200
:10542000052B7FF41FAF01224FF40051074825F0F0
:105430005DFE0323044A1370054A9370054A536CBA
:1054400043F0010353640DE74F130024001002588A
:1054500000110024840D0024F07102245213002452
:105460003C130024381300246869022431130024FB
:105470003213002454130024AE120024FFF718FD49
:10548000264B5B6C13F0040F3FF4ECAE234C636CC3
:1054900023F0020363640022214B1A704FF4005181
:1054A000204825F023FE4FF47A70FEF7D3FB062345
:1054B0001D4A13701D4A9370626C42F001026264CF
:1054C0001B4A82F82830CDE61A4B00221A60C9E642
:1054D0004FF47A70FEF7BEFB174B1B68B3F5FA7FEB
:1054E0007FF6CBAE144B4FF4C8621A6000224FF423
:1054F00000510C4825F0FAFD4FF47A70FEF7AAFB34
:105500000623094A1370094A937004494A6C42F011
:1055100001024A64064A82F82830AEE6840D00246F
:1055200052130024001002584F13002400110024CD
:10553000F07102243C1300243813002408B5144BE6
:105540005B7E012B10D0022B11D07BB9114B9B78C5
:10555000DBB2092B0AD00E4B9B7D3BB10C4BDB7DA4
:1055600023B1FFF743FE01E00A4B9B7808BD094BCE
:105570009B78DBB2092BF9D0054B9B7D002BF5D036
:10558000034BDB7D002BF1D0FFF7ECFCEEE700BF17
:10559000686902240011002408B5FFF773FAFEF7CA
:1055A0005DFFFEF7E1FFFFF7EBFAFFF7C7FF08BD6E
:1055B00008B50268034B9A4200D008BDFFF7ECFF24
:1055C000FBE700BF0040014030B583B0434D0121EF
:1055D000284625F085FDB0FA80F4640902212846AA
:1055E00025F07EFD08B944F0020404213B4825F073
:1055F00077FD08B944F00404072C34D8DFE804F040
:1056000044413E3B38354704224650233449097B08
:10561000A1423FD133490A70DBB2334A1370304B99
:105620009B7A07EE903AF8EE677A304BC3ED007A3A
:105630002B4B9B7A013BDBB24E2B44D92B4BD3ED4A
:10564000007AFCEEE77ACDED017A9DF80430244A29
:1056500093724F2B37D95023234A1370234A24497E
:1056600011601F4A937203B030BD22463823CDE744
:1056700022463023CAE722462823C7E722462023B2
:10568000C4E722461823C1E722461023BEE722467C
:105690004023BBE713490A70D9B21348017007EEE3
:1056A000903AF8EE677A134BC3ED007A0F4BC3EDD7
:1056B000007A0B4B1A73997210F0CAFC21460E48FF
:1056C00058F074FDB4E7094B93ED007ADFED0B7AE7
:1056D000B4EEE77AF1EE10FAC5DBBCE7001402582D
:1056E00064910224EC120024531300245413002468
:1056F0000000A0422C130024503E08080000A042E5
:1057000010B52021424825F0EBFC003818BF0120DD
:10571000404B1870FEF71AFE3F4B1B7833B93F4BD6
:105720001B78DBB2012801D1062B06D100222021F3
:10573000374825F0DBFC032010BD0122202134482E
:1057400025F0D4FC364A13780133DBB21370354AA6
:1057500035498968106801441160102B01D003207D
:10576000EAE70909314C216000232D4A13702D4AC4
:105770001360294B01221A702D4858F017FD236839
:105780002C4A934215D82C4A002111702B4A93427F
:1057900038D22B4B1B780133DBB2012B2ED9284B8F
:1057A0000B221A70274B0A221A700120264B187000
:1057B000C2E7214B1B780133DBB2012B03D81E4A11
:1057C00013700020B8E71C4B0B221A7009231D4AE6
:1057D00013701E491022CA701D48426C42F001022B
:1057E00042648B700024184A14700C4A1370194BD1
:1057F00003229A7010F046FC20469DE7104A137071
:10580000032099E70E4B00221A70032094E700BF93
:1058100000040258481300240200002450130024FE
:10582000AC120024A812002484120024A412002424
:10583000683E0808E0673500A2120024A025260073
:10584000A11200244D1300240300002400110024A1
:10585000840D00241491022408B50C4B1B6913F02D
:10586000080F00D008BD0A4B00221A70094A112304
:10587000D37009494B6C43F001034B6409239370C7
:10588000064B0322DA7010F0FDFBEBE70014025820
:105890005013002400110024840D002414910224CC
:1058A00008B59C4B9B78DBB2092B08D09A4B9B7DAB
:1058B00043B3994BDB7D003B18BF012300E000237D
:1058C000964A1370FFF70EF8FEF740FD0C281BD028
:1058D000012828D1924B1B780C2B24D1914B5B686B
:1058E000002B4FD00623904A13708A4A93700021F0
:1058F000D17093708D4A93718D4B1970884B002233
:105900001A7010E00023DBE70C22894B1A708149E2
:105910000223CB708748436C43F00103436409239F
:105920008B707F4B1A70844B93F83A30002B36D132
:10593000824B1B78DBB2012B34D0804B1A78804B22
:105940001A707D4B93F83930002B37D1784B1B7888
:10595000DBB2032B41D0764B1B78DBB2022B3CD061
:105960000023784A1370784A1360714B1B78DBB2BE
:10597000042B7CD00023754A1370754A13601FF006
:1059800065FE08BD0123684A1370624A0021D17088
:1059900093709370654A9371654B1970AEE7FFF78A
:1059A0005BFFC5E7664B1B78002BC6D1694B012214
:1059B0001A70694B40F6B8321A80BEE7FEF7C6FC93
:1059C000664B18701B78DBB2012B654B0CBF0122B4
:1059D00000221A70FFF794FEB8E7FEF7B7FC614BA0
:1059E00093ED077ADFED607AB4EEE77AF1EE10FA24
:1059F00040F38780D3ED076A93ED067A012840F0E3
:105A00008280DFED5A7AF4EE676AF1EE10FA7AD509
:105A1000DFED577AB4EEE77AF1EE10FA73D5494B21
:105A20001B783BB921F0EAFA474B1860454B01223D
:105A30001A709AE721F0E2FA434B1B68C01A4D4BEB
:105A4000984292D900233F4A13703F4A1360384A64
:105A50001370304AD37001239370344A9371324AE1
:105A60001370344A536C43F0010353647DE7FEF72F
:105A70006DFC3C4B93ED067A3F4BD3ED007AB4EED0
:105A8000E77AF1EE10FA36D5364B93ED067A012817
:105A900031D1DFED377AB4EE677AF1EE10FA2AD51C
:105AA0002A4B1B783BB921F0A9FA294B1860274BE8
:105AB00001221A7063E721F0A1FA254B1B68C01A76
:105AC0002C4B98427FF65BAF0023204A1370204A8C
:105AD0001360174A13700F49CB7001228A70134963
