:020000040802F0
:100000000000082415DB03083DCC030841CC03089D
:10001000D5CC0308D7CC0308D9CC030800000000D6
:10002000000000000000000000000000DBCC03081E
:10003000DDCC030800000000DFCC0308E1CC03089E
:1000400065DB030865DB030865DB030865DB030884
:1000500065DB030865DB030865DB030865DB030874
:1000600065DB030865DB030865DB0308C1CE030815
:1000700065DB030865DB030865DB030865DB030854
:1000800065DB030865DB030865DB030865DB030844
:1000900065DB030865DB030865DB030865DB030834
:1000A00065DB030865DB030865DB030865DB030824
:1000B000D1CE0308E1CE030865DB030865DB030846
:1000C00065DB030865DB030865DB030865DB030804
:1000D00065DB0308F1CE030801CF030811CF030845
:1000E00021CF030865DB03080000000065DB03087F
:1000F00065DB030865DB030865DB030865DB0308D4
:1001000065DB03082DCF030865DB030865DB030807
:1001100065DB030865DB030865DB030865DB0308B3
:1001200065DB030865DB030865DB030865DB0308A3
:1001300065DB03088DCF030865DB030865DB030877
:1001400000000000000000000000000000000000AF
:1001500065DB030865DB030865DB03083DCF0308A7
:1001600065DB030865DB030865DB030865DB030863
:1001700065DB030865DB030865DB0308000000009E
:1001800065DB030865DB03084DCF03085DCF03087B
:1001900065DB03086DCF030865DB030865DB030837
:1001A000000000000000000065DB030865DB0308B9
:1001B00065DB030865DB030865DB030865DB030813
:1001C00065DB030865DB030865DB030865DB030803
:1001D00065DB030865DB030865DB030865DB0308F3
:1001E00065DB030865DB030865DB030865DB0308E3
:1001F00065DB030865DB030865DB030865DB0308D3
:1002000065DB030865DB030865DB030865DB0308C2
:100210007DCF030865DB030865DB030865DB0308A6
:1002200065DB03080000000065DB03080000000038
:1002300065DB030865DB03080000000065DB0308DD
:1002400065DB030865DB030865DB030865DB030882
:1002500065DB030865DB030865DB030865DB030872
:1002600065DB030865DB030865DB030865DB030862
:1002700065DB030865DB030865DB0308000000009D
:1002800065DB030865DB030865DB0308000000008D
:080290000000000065DB03081B
:1002A00010B5054C237833B9044B13B10448AFF3B0
:1002B00000800123237010BDF00200240000000024
:1002C000B8A3070808B5034B1BB103490348AFF3B4
:1002D000008008BD00000000F4020024B8A3070855
:1002E00010F8012B11F8013B012A28BF9A42F7D0E0
:1002F000D01A70470000000000000000000000005D
:1003000001F0FF01102A2BDB10F0070F08D010F8C6
:10031000013B013A8B422DD010F0070F42B3F6D1CA
:10032000F0B441EA012141EA014122F007047FF0E3
:1003300000070023F0E80256083C85EA010586EA3A
:10034000010685FA47F5A3FA87F586FA47F6A5FA76
:1003500087F68EB9EED1F0BC01F0FF0102F0070282
:1003600032B110F8013B013A83EA010313B1F8D12D
:100370000020704701387047002D06BF354603380E
:10038000073815F0010F07D1013015F4807F02BF47
:10039000013015F4C03F0130F0BC0138704700BF98
:1003A000034613F8012B002AFBD1181A01387047B5
:1003B00081F0004102E000BF83F0004330B54FEA16
:1003C00041044FEA430594EA050F08BF90EA020F83
:1003D0001FBF54EA000C55EA020C7FEA645C7FEA16
:1003E000655C00F0E2804FEA5454D4EB5555B8BF39
:1003F0006D420CDD2C4480EA020281EA030382EAAA
:10040000000083EA010180EA020281EA0303362D3B
:1004100088BF30BD11F0004F4FEA01314FF4801C0E
:100420004CEA113102D0404261EB410113F0004F20
:100430004FEA03334CEA133302D0524263EB4303D7
:1004400094EA050F00F0A780A4F10104D5F1200E75
:100450000DDB02FA0EFC22FA05F2801841F10001D0
:1004600003FA0EF2801843FA05F359410EE0A5F1A4
:1004700020050EF1200E012A03FA0EFC28BF4CF0D5
:10048000020C43FA05F3C01851EBE37101F000458B
:1004900007D54FF0000EDCF1000C7EEB00006EEB98
:1004A0000101B1F5801F1BD3B1F5001F0CD3490822
:1004B0005FEA30004FEA3C0C04F101044FEA445279
:1004C00012F5800F80F09A80BCF1004F08BF5FEA00
:1004D000500C50F1000041EB045141EA050130BDE0
:1004E0005FEA4C0C404141EB0101013C28BFB1F5F2
:1004F000801FE9D291F0000F04BF01460020B1FA3D
:1005000081F308BF2033A3F10B03B3F120020CDA0F
:100510000C3208DD02F1140CC2F10C0201FA0CF0ED
:1005200021FA02F10CE002F11402D8BFC2F1200C52
:1005300001FA02F120FA0CFCDCBF41EA0C01904008
:10054000E41AA2BF01EB0451294330BD6FEA040451
:100550001F3C1CDA0C340EDC04F11404C4F120023C
:1005600020FA04F001FA02F340EA030021FA04F34E
:1005700045EA030130BDC4F10C04C4F1200220FAA5
:1005800002F001FA04F340EA0300294630BD21FAE3
:1005900004F0294630BD94F0000F83F4801306BFA9
:1005A00081F480110134013D4EE77FEA645C18BF9D
:1005B0007FEA655C29D094EA050F08BF90EA020F34
:1005C00005D054EA000C04BF1946104630BD91EA2C
:1005D000030F1EBF0021002030BD5FEA545C05D12F
:1005E0004000494128BF41F0004130BD14F580046E
:1005F0003CBF01F5801130BD01F0004545F0FE41E2
:1006000041F470014FF0000030BD7FEA645C1ABF16
:10061000194610467FEA655C1CBF0B46024650EA4D
:10062000013406BF52EA033591EA030F41F4002179
:1006300030BD00BF90F0000F04BF0021704730B5FF
:100640004FF4806404F132044FF000054FF00001D4
:1006500050E700BF90F0000F04BF0021704730B595
:100660004FF4806404F1320410F0004548BF40426A
:100670004FF000013EE700BF42004FEAE2014FEABF
:1006800031014FEA02701FBF12F07F4393F07F4F9A
:1006900081F06051704732F07F4208BF704793F09D
:1006A0007F4F04BF41F40021704730B54FF46074B0
:1006B00001F0004521F000411CE700BF50EA0102B3
:1006C00008BF704730B54FF000050AE050EA01025C
:1006D00008BF704730B511F0004502D5404261EBCC
:1006E00041014FF4806404F132045FEA915C3FF40D
:1006F000D8AE4FF003025FEADC0C18BF03325FEAAA
:10070000DC0C18BF033202EBDC02C2F1200300FA5A
:1007100003FC20FA02F001FA03FE40EA0E0021FA7F
:1007200002F11444BDE600BF7BB972B90029BEBF17
:1007300000204FF0004106E008BF00281CBF6FF00A
:1007400000414FF0FF3000F00BBAADF1080C6DE93D
:1007500004CE002909DB002B1ADB00F085F8DDF858
:1007600004E0DDE9022304B07047404261EB41013F
:10077000002B1BDB00F078F8DDF804E0DDE9022354
:1007800004B0404261EB4101524263EB43037047C6
:10079000524263EB430300F067F8DDF804E0DDE963
:1007A000022304B0404261EB41017047524263EBC7
:1007B000430300F059F8DDF804E0DDE9022304B05A
:1007C000524263EB4303704753B94AB9002908BF4B
:1007D00000281CBF4FF0FF314FF0FF3000F0C0B9D0
:1007E000ADF1080C6DE904CE00F03EF8DDF804E050
:1007F000DDE9022304B0704708B502460B4643EC1E
:10080000172BB5EEC07BF1EE10FA03D4BDE808401B
:1008100000F00AB8B1EE477B51EC170B00F004F87A
:10082000404261EB410108BD9FED0B6B41EC170BA2
:100830009FED0B5B27EE066BBCEEC66BB8EE464B2E
:10084000A4EE457BFCEEC77B16EE101A17EE900A5D
:10085000704700BFAFF30080000000000000F03DD3
:10086000000000000000F0412DE9F047089D8E4691
:1008700004468846002B4AD18A42174662D9B2FA0A
:1008800082F64EB1C6F1200301FA06F820FA03F30E
:10089000B74043EA0808B4404FEA174E1FFA87FCF6
:1008A000B8FBFEF1230C0EFB118843EA084301FB61
:1008B0000CF29A4209D9FB1801F1FF3080F0EA806E
:1008C0009A4240F2E78002393B449A1AA3B2B2FB43
:1008D000FEF00EFB102243EA024300FB0CFC9C4599
:1008E00009D9FB1800F1FF3280F0D6809C4540F218
:1008F000D3803B44023840EA0140A3EB0C030021C3
:100900001DB1F3400022C5E90032BDE8F0878B42FB
:1009100005D90DB1C5E9000100210846F5E7B3FA94
:1009200083F1002946D1734502D3824200F205814A
:10093000841A6EEB030201209046002DE5D0C5E934
:100940000048E2E7002A00F09080B2FA82F6002E1A
:1009500040F0A4808A1A030C4FEA174E80B2BCB252
:100960000121B2FBFEFC0EFB1C2243EA024304FB06
:100970000CF29A4207D9FB180CF1FF3802D29A42C6
:1009800000F2E080C4469B1AB3FBFEF20EFB12336A
:1009900040EA034302FB04F49C4207D9FB1802F12E
:1009A000FF3002D29C4200F2CA8002461B1B42EA80
:1009B0000C40A5E7C1F120068B4022FA06F71F4341
:1009C0000EFA01F420FA06F32EFA06FE4FEA174952
:1009D000234300FA01F81FFA87FCBEFBF9F01C0C58
:1009E00009FB10EE44EA0E4400FB0CFEA64502FA99
:1009F00001F209D93C1900F1FF3A80F09C80A6452C
:100A000040F2998002383C44A4EB0E041FFA83FEA6
:100A1000B4FBF9F309FB13444EEA044403FB0CFC5A
:100A2000A44508D93C1903F1FF3E80F08280A4451B
:100A30007FD9023B3C4443EA0040A4EB0C04A0FBFA
:100A400002EC64457346E14662D35FD05DB1B8EB1A
:100A5000030264EB090404FA06F622FA01F31E43CA
:100A6000CC40C5E9006400214FE7B1FBF2FC010C6A
:100A700041EA0E4180B240EA01423B4638463C46DC
:100A8000B846BE462026B1FBF7F1A2EB080241EAC8
:100A90000C4166E7014618E710462CE7C6F1200234
:100AA0002EFA02F3B740B14020FA02F24FEA174E95
:100AB0000A43B3FBFEF8BCB20EFB1833110C41EA3B
:100AC000034108FB04F9B04089454FEA104380B266
:100AD0003ED9791808F1FF3C01D289451FD8A1EB16
:100AE0000901B1FBFEF909FB04F80EFB191192B2E2
:100AF00042EA0142424529D2BA1809F1FF31C4D273
:100B00004245C2D2A9F102013A44BEE7F0459DD266
:100B1000BEEB02036CEB070C0138E14696E7A7EB4E
:100B200009094944A8F1020CB1FBFEF909FB04F8DC
:100B3000DBE773467FE7504666E70846FDE63B4441
:100B4000023A33E7ACF1020C3B441CE749469CE710
:100B5000A1EB0901C446B1FBFEF909FB04F8C4E7A7
:100B6000704700BF08B500224021024821F086F9F5
:100B700008BD00BF0014025808B5012240210248F8
:100B800021F07CF908BD00BF0014025800B583B005
:100B90000301C0F307108DF800008DF801300B0E33
:100BA0008DF802300B0C8DF803300B0A8DF80430F1
:100BB0008DF80510FFF7D6FF084B00221A700622A9
:100BC0006946074825F0C4FF044A1378002BFCD07F
:100BD000FFF7D2FF03B05DF804FB00BF3803002429
:100BE0000CCE012400B583B00301C0F307108DF8CB
:100BF00004008DF805300B0A8DF806308DF80710CB
:100C0000FFF7B0FF084B00221A7004220DEB02011F
:100C1000064825F09DFF044A1378002BFCD0FFF70F
:100C2000ABFF03B05DF804FB380300240CCE0124B5
:100C300000B583B0000100F10803C0F307208DF870
:100C400004008DF80530FFF78DFF154B00221A7058
:100C5000022201A9134825F07BFF114A1378002BCB
:100C6000FCD00F4B00221A70042269460D4825F073
:100C7000DFFF0B4A1378002BFCD0FFF77DFF9DF8B8
:100C800000209DF801301B0443EA02639DF8032015
:100C900013439DF8020043EA002003B05DF804FB13
:100CA000380300240CCE012400B583B0000100F10C
:100CB0000803C0F307208DF800008DF80130FFF71E
:100CC00051FF114B00221A70022269460F4825F08D
:100CD0003FFF0D4A1378002BFCD00B4B00221A70FB
:100CE000022201A9094825F0A3FF074A1378002B27
:100CF000FCD0FFF741FF9DF804009DF8053043EA62
:100D0000002003B05DF804FB380300240CCE01245E
:100D10000268044B9A4200D07047034B01221A70BC
:100D2000FAE700BF00500140380300240268044B7A
:100D30009A4200D07047034B01221A70FAE700BFB5
:100D40000050014038030024F8B56D4B984219D08B
:100D5000014601246B4E05251F462B462246304690
:100D600055F03CF914201DF017F81BF087F940F2FC
:100D70004220FFF75DFF0146052C00F0B6800134EC
:100D8000B942EAD1604855F091F95D495F4855F0A4
:100D900025F9042140F2B940FFF724FF0021232068
:100DA000FFF7F4FE5A494920FFF7F0FE59494A205F
:100DB000FFF7ECFE00212020FFF7E8FE4FF4407122
:100DC00040F28140FFF70EFF4FF4406140F2AF4028
:100DD000FFF708FF022140F29340FFF703FF0021D5
:100DE00040F29240FFF7FEFE4B4940F20F40FFF702
:100DF000CDFE002140F29A40FFF7F4FE4FF0804113
:100E000040F20540FFF7C2FE43F2C83140F21C40F9
:100E1000FFF7BCFE43F2C83140F21D40FFF7B6FEBB
:100E200043F2C83140F21E40FFF7B0FE052140F208
:100E30009140FFF7D7FE4FF47A714C20FFF7A6FEE2
:100E400003214FF49660FFF7CDFE40F69F7140F20C
:100E5000B240FFF7C7FE0C2140F2B640FFF7C2FEDA
:100E60001BF00CF92D490220FFF790FE2C491020B1
:100E7000FFF78CFE2B490020FFF788FE4FF07041F2
:100E80000520FFF783FE284940F21440FFF77EFE5D
:100E900026494FF48260FFF779FE052140F28C402D
:100EA000FFF7A0FE052140F28B40FFF79BFE204993
:100EB00040F20940FFF76AFE40F20240FFF7B8FE39
:100EC000014640F20240FFF761FE1A4B08A1D1E94A
:100ED0000001C3E9000108A1D1E90001C3E9020151
:100EE00032201CF059FF012000E00020F8BD00BFB7
:100EF00000008002A4FEDA4100000026D41EB341A7
:100F00003A1509005CA507082CA5070834A50708B1
:100F10008978E9FF10A91300E8112C000A90FA6BF8
:100F200026D41E1369882A09943577008C864700D9
:100F30006CDC02002803002410B52F4C0022202175
:100F4000204620F09BFFC8201CF026FFFFF70AFE7A
:100F5000C8201CF021FF01222021204620F08EFF16
:100F60001BF08CF8C8201CF017FFFFF705FE4FF4AC
:100F7000FA701CF011FF00222021204620F07EFF95
:100F8000C8201CF009FFFFF7EDFD1BF077F8C82023
:100F90001CF002FF01222021204620F06FFFC82014
:100FA0001CF0FAFEFFF7E8FD4FF4FA701CF0F4FEB7
:100FB0001BF064F801214FF49060FFF713FE6420EA
:100FC0001CF0EAFE40F24220FFF732FE0B4B1860A5
:100FD000FFF7BAFE10B11BF051F810BD084855F0EC
:100FE00065F80922074B9A7007490B6C43F001031F
:100FF0000B64064B1A70EEE70014025850C6012429
:101000008CA5070818120024A8060024A0040024B8
:1010100010B52DED048B044640F29F30FFF708FE1B
:10102000206007EE900AB8EEE77AB7EEC77A9FED38
:10103000229B27EE097B9FED225B87EE056BB7EEC7
:10104000C67B234B83ED0F7AB7EEC77A27EE097B79
:101050009FED1D8B87EE086BB7EEC66B84ED036AC0
:1010600040F2BD30FFF7E4FD606007EE900AB8EE95
:10107000E77AB7EEC77A27EE097B87EE086BB7EE03
:10108000C66B84ED046A40F2B330FFF7D1FDA06077
:1010900007EE900AB8EEE77AB7EEC77A27EE097B3B
:1010A00087EE086BB7EEC66B84ED056ABDEC048B6A
:1010B00010BD00BFAFF3008021B1DD3D4077EB3FB5
:1010C0000000000065CDCD410000000000408F40D1
:1010D000A00400240000000010B52DED048B044690
:1010E0004FF40170FFF7A4FD07EE900AB8EEE77A1F
:1010F000B7EEC77A9FED246B27EE067B9FED245B4E
:1011000087EE056BB7EEC66B9FED237AC6EE077AC6
:10111000F5EEC07AF1EE10FA48BFF1EE677A206082
:1011200084ED016A1D4BC3ED107A40F20720FFF7F2
:101130007FFDA06007EE900AB8EEE77AB7EEC77AB7
:101140009FED119B27EE097B9FED118B87EE086BBE
:10115000B7EEC66B84ED036A40F20620FFF768FD28
:10116000206107EE900AB8EEE77AB7EEC77A27EE6D
:10117000097B87EE086BB7EEC66B84ED056ABDECA4
:10118000048B10BDAFF30080B6F3FDD4F892974006
:101190000000000000408F4000007A44A0040024BA
:1011A00010B52DED028B044640F21220FFF740FDF2
:1011B000206007EE900AF8EEE77A9FED118A87EE3D
:1011C000887A84ED017A40F20320FFF731FDE06078
:1011D00007EE900AF8EEE77A87EE887A84ED047AD3
:1011E00040F20220FFF724FD07EE900AF8EEE77ABE
:1011F00087EE887A84ED027ABDEC028B10BD00BFC9
:1012000000007A4410B52DED028B04464FF40270B5
:10121000FFF70EFD206007EE900AFAEEE27AB7EED5
:10122000007AF4EE477AF1EE10FA67FE277AC4ED01
:10123000017A4FF48360FFF7FBFCA060013007EEFA
:10124000900AF8EEE77ADFED116A86EEA77A84ED70
:10125000037A40F29240FFF727FD10F0100F9FED48
:101260000C8ADFED0C7A08FE278A40F28540FFF7F2
:101270001BFD00B2206107EE900AF8EEE77A28EE37
:10128000278A84ED058ABDEC028B10BD00007A4DE3
:101290000000903CCDCCAC3C38B505460C2140F26A
:1012A000B640FFF79FFC40F27140FFF7C1FC0446D7
:1012B00040F2B740FFF7F8FC2880220C06EE102A17
:1012C000BBEEED6B07EE900AB8EE677AA4B207EEBC
:1012D000904AF8EE677A27EE277ADFED087A27EE54
:1012E000277AB7EEC77A36EE477BB7EEC77BDFEDDE
:1012F000047A37EE677A85ED017A38BD0000003751
:1013000000007A4470B540F20240FFF791FC0446B9
:1013100010F4807F40F09980214640F20240FFF7B0
:1013200035FC794B1B78DBB2042B00F09280002255
:101330007649774824F0A9F87648FFF7CDFE764C39
:101340002046FFF72DFF754D2846FFF75BFF744ED3
:101350003046FFF7A1FFD6ED015A6B4BFCEEE57A64
:10136000C3ED017A94ED047ADFED6E6AC7EE267A5A
:1013700094ED016A86EE267AC3ED027A83ED037A54
:10138000D5ED016AC3ED096A674B93ED006A37EE4C
:10139000067A83ED007A654B93ED006A77EE867AE4
:1013A000C3ED007A624B93ED006A36EE866A83EDF8
:1013B000006A604B1A8806EE902AF8EEE66A76EE2E
:1013C000A56AFCEEE66A16EE902A1A805A4A13784D
:1013D0000133DBB21370032B7FD9F5EE005A27EEF1
:1013E000257A9FED565A27EE057ABDEEC77AB8EEFC
:1013F000C77AC7EE056A67EEA57A9FED515A67EE88
:10140000857AFDEEE77AF8EEE77A87EE857A65EE83
:10141000C65AF3EE047AF4EEE76AF1EE10FA3CD421
:10142000DFED487AF4EEE76AF1EE10FA68D4DFED0A
:10143000467AF4EEE76AF1EE10FADFED447A9FEDBA
:10144000446A58BFF0EE467A29E04248FFF7E0FDD3
:1014500062E71CF09BFC404B1B68C01AB0F5FA6FAA
:10146000FFF465AF1CF092FC3B4B1860264B93EDEC
:101470000E0A3A4BD3ED007A70EE677AF0EEE77A17
:101480009FED377AF4EEC77AF1EE10FAFFF64FAF20
:1014900083ED000A0DF0D8FB49E7DFED327A1A4BF5
:1014A000C3ED066A83ED077AC3ED085A2E4AC2EDF2
:1014B000007A66EE876A66EEA76AF0EEE66AC3ED2A
:1014C0000A6A0023184A1360184A1360184A136006
:1014D0000023184A1380184A1370244BD3ED077A5F
:1014E000234AC2ED067A9B695361FCEEE77A17EE58
:1014F000903AD3711F4B00221A801AF0BFFD70BDC5
:10150000DFED1D7ACBE700BFA004002438C601241C
:101510006CCD0124700400245C04002444040024E5
:101520003C04002400007A441C0300241803002417
:101530001403002412030024100300240000C842F6
:1015400000401C460000204200007042DBF97E3F54
:1015500052B87E3F88040024240300242003002482
:1015600017B7D13877BE7F3F0C0300243C0300241B
:10157000181200244EAE0024EE7C7F3F304B9B7847
:10158000002B4AD110B52F4B1B78002B29D02E4BA6
:101590009B79DBB2032B09D02B4B9B79DBB2042B5D
:1015A00004D0294B9B79DBB2062B11D1274B9B7DB5
:1015B0006BB9274B9B79DBB2082B08D0244B9B7966
:1015C000DBB2092B224B0CBF092208229A7110BDF5
:1015D0001E4B0024DC759C7508F0C6FA194B1C7074
:1015E000E4E71C4B1B78002BE0D0174B9B79DBB258
:1015F000032BDBD0144B9B79DBB2042BD6D0124BE0
:101600009B79DBB2062BD1D0104B0024DC759C7586
:1016100008F0AAFA0B4B1C70C8E70C4B9B7D73B902
:101620000B4B9B79DBB2082B09D0094B9B79DBB2C2
:10163000092B074B0CBF092208229A71704770478B
:10164000FCFF002405F90024A8060024F47B0024F4
:10165000A808002404F9002410B5194B5B8C1E2B3C
:1016600002D8174B1E225A84154B5A8C1549CA8032
:101670001549CA809B7D012B144B0CBF0122082207
:101680009A71124A01219171FF201070104CA171C2
:101690002070104B1870507060709170D1700020E5
:1016A0001082188258720C4A51700C4A3C211177F2
:1016B00000221A635A639A6307F016FE10BD00BF3A
:1016C000F47B0024FCFF0024F0FF0024A808002481
:1016D000A8070024A8060024181200248805002466
:1016E000BFF34F8F0549CA6802F4E062044B13430D
:1016F000CB60BFF34F8F00BFFDE700BF00ED00E000
:101700000400FA0538B59A4B1B6C13F0010F41D059
:10171000984B9B7803F0FF04002B3BD1964B9A78B3
:101720009B78DBB2092B64D8934B5D78904A157295
:101730009978C9B29171D3ED056AC2ED066AD3F802
:1017400018E0C2F81CE093ED0C7BB7EEC77B82ED8E
:101750000B7AD3F820C0C2F824C05C6A9462D869BE
:101760001062D97801B15172844B1D72824A92780D
:10177000D2B29A71C3ED066AC3F81CE083ED0B7A0E
:10178000C3F824C09C6218625972794A136C23F022
:1017900001031364764B1B6C13F0020F62D0744B81
:1017A0009B79DBB2032B2AD0754B1B889BB2754A01
:1017B000928B9A4234D86E4B9B79DBB2012B68D165
:1017C0006B4A136C23F0020313646F4B04225A809C
:1017D0006E4854F06BFC00236D4A13706D4A012172
:1017E00011706D4A052111706C4A13706C4A1370A8
:1017F0004FE05F4A136C23F001031364BAE15C4AC3
:10180000136C23F002031364664A936843F00103E8
:1018100093605F4B00221A705E4B01221A7038E011
:10182000534B9B79DBB2022B18D0554B1B889BB2D4
:101830005D4A12789A422CD04D4B9B79DBB2012B3A
:1018400027D14F4B1988584A1170554A0121117000
:10185000198889B2554854F0C1FB1AE04A4B02225C
:101860005A8016E0424B1B6C13F0040F11D0404B12
:101870009B79DBB2032B4CD04A4B5B6823B1494ABE
:10188000936843F002039360394A136C23F0040316
:101890001364474B93F8A04014F0010440F06981B1
:1018A000334B93F84430002B00F01C81304B9B7974
:1018B000DBB2032B31D02E4B9B79DBB2042B2CD027
:1018C000304BDA8A40F201139A4240F0FD802D4BF2
:1018D0001D7B012D78D02B4B5D79012D00F09E8072
:1018E000284BDD79012D00F0C480264B1B79012B9C
:1018F00000F0F880032003F01BFF2E4B00221A603B
:101900005A609A60DA601A615A612B4854F0CEFB33
:10191000E8E01D4B04225A80BBE72649274854F0D3
:10192000DEFDB0B1264854F0C1FB224B00221A6004
:101930005A609A60DA601A615A6153F8041C41F0E7
:10194000040143F8041C164B1A70164B03221A703C
:1019500010E11C4854F0AAFB164B00221A605A6092
:101960009A60DA601A615A61032003F0E1FE01E136
:10197000A8060024FCFF002418120024A805002457
:10198000F2040024F47B0024F8040024A8A507082E
:10199000F404002400000024C51E0024C61E0024F8
:1019A00046AE0024C8FF0024F1040024E4A5070883
:1019B00078AC0024EC060024A4A60708D4FF002479
:1019C00018A6070834A607086C480CF0CFFE0028BC
:1019D00081D06A4C21466A4855F0A9FC54F8043C71
:1019E00043F0020344F8043C0122664B1A700023C2
:1019F00023606360A360E36023616361624B1A70DC
:101A0000624B1B8D3C339BB2614A1380022003F072
:101A10008FFE604854F04AFB2C46ABE057480CF070
:101A2000D7FE00283FF45CAF544C2146544855F093
:101A30007EFC54F8043C43F0020344F8043C0122C9
:101A4000504B1A70002323606360A360E36023613E
:101A500063614E4B1B8D3C339BB24D490B804A4B0F
:101A60001A70022003F064FE4B4854F01FFB2C4612
:101A700080E042480CF07AFE00283FF436AF3F4C3D
:101A800021463F4855F053FC54F8043C43F0020310
:101A900044F8043C01223B4B1A700023236063602E
:101AA000A360E36023616361374B1A70374B1B8D72
:101AB0003C339BB2364A1380022003F039FE35488E
:101AC00054F0F4FA2C4655E0032003F031FE2B4B82
:101AD00000221A605A609A60DA601A615A612F48CF
:101AE00054F0E4FA294B5B7E022B0FD0002B43D03D
:101AF0002B4B9B79DBB2062B32D0294B9B79DBB287
:101B0000012B37D1274B00221A7033E0244B9B79ED
:101B1000DBB2022B0DD0224B9B79DBB2062B1BD004
:101B20001F4B9B79DBB2012B24D11E4B00221A7074
:101B300020E01C4B1B78002BEDD1194A136C43F0AD
:101B400002031364114B1B8D3C339BB2104A13806C
:101B50000C4B01221A70DEE70A4B00221A7009E0D2
:101B60000F4A136C43F004031364064B00221A70EF
:101B700000E00024204638BD1C46FBE7EC060024AC
:101B8000D4FF002446AE0024F4040024F47B002497
:101B9000F204002454A607087CA60708C4A6070878
:101BA000A80600240000002408B51C4B1B6C13F091
:101BB000400F1BD01A4B5B78C3B91A4B1B78A3F1AB
:101BC0000802D2B2012A09D9033BDBB2012B23D987
:101BD0000823124A9371134A93711DE009F0F8FA31
:101BE00005F050FD08F0DAFCFFF77AFD0B4B1B6C9B
:101BF00013F0200F10D00B4B1B78033BDBB2012BF3
:101C00000AD90022084B1A70044B1A7005490A7051
:101C10001A6C22F020021A64002008BDA8080024D3
:101C200028750024A8060024FCFF002410B598B0F5
:101C30001D4C002207A9204623F027FC00220CA9F6
:101C4000204623F048FC9DF81C300F939DF81D3072
:101C50000E939DF81E300D939DF8323010939DF831
:101C600031309DF8332064321292013B11930DA85C
:101C700054F034FECDE9160116A854F046FC014696
:101C800000240094019402940394049405948DF824
:101C90001840684655F04BFBFFF770FCFFF784FFD8
:101CA000204618B010BD00BF6CCD012408B5431EFE
:101CB000142B67D8DFE803F00B2966666666666654
:101CC0006666666644596666606566151F00304A3A
:101CD0009379DBB212789A4253D02D4B9A791A70CD
:101CE0004FE02C4B9B78032B4BD12A4B00229A7050
:101CF00005F0B4FC45E0274BDB78032B41D1254BA5
:101D00000022DA7005F0AAFC3BE0234A9379DBB2AB
:101D100012789A4235D0204B9B79DBB2042B0CBF52
:101D2000024601221C4B83F8EC209B79DBB2032B8B
:101D300018BF0120184B83F8ED009A791A7020E043
:101D4000134AD37952789A421BD0114A5370072B09
:101D500006D0062B15D10E4BFF22DA715A7010E017
:101D60001346FF22DA715A700BE0094BDA789B7840
:101D7000934201D0064B9A70084A936823F40043BB
:101D8000936008BD0146064854F028F9F9E700BF02
:101D9000A808002440FF0024A8060024C8FF00244F
:101DA000F0A6070808B5431E0D2B40D8DFE803F066
:101DB000071A3F3F3F3F3F3F3F3F3F3F24371E4AC9
:101DC0009379DBB212789A4202D01B4B9A791A703F
:101DD0001A4B9B78032B2ED1184B00229A7005F0DA
:101DE0003DFC28E0164A9379DBB212789A4222D061
:101DF000134B9A791A701EE00F4AD37952789A429F
:101E000019D00D4A5370072B05D0062B13D10A4B5E
:101E1000FF22DA710FE01346FF22DA710BE0064B66
:101E2000DA789B78934206D0034B9A7003E0014620
:101E3000044854F0D3F808BDA807002440FF00244C
:101E4000A8050024F0A60708514B587E012803D0AE
:101E500002283AD0FF2070474E4A13780133DBB294
:101E60001370032B2CD8DFE803F0020A13234A4A2D
:101E70009379DBB212789A4208BFFF207047464937
:101E80008A79D2B20978914214BF1846FF20704770
:101E9000414B1B78032B04D03E4B00221A70FF20CD
:101EA00070473D4B9B79DBB2032B08BFFF20704787
:101EB000394A9379DBB212789A4208BFFF20704703
:101EC000344B00221A70FF207047324B18780130D3
:101ED000C0B2187001283AD0022844D000284DD151
:101EE0002D4A9379DBB212789A424CD12A4B9B79D6
:101EF000DBB2022B0BD0284B9B79DBB2032B1CD01F
:101F0000254B9B79DBB2012B1CD0FF207047234B64
:101F10001B78002BEFD1204A136C43F002031364AB
:101F200001231F4A13701F4A1370194B1B8D3C333A
:101F30009BB21D4A1381FF207047164B01221A7075
:101F4000FF207047154B00221A70FF207047124A7D
:101F50009379DBB212789A4200D070470D4B02227F
:101F60001A70FF2070470C4A9379DBB212789A42BC
:101F70000BD0084B00221A7001207047054B00223D
:101F80001A70FF20704701207047FF20E5E700BF6F
:101F9000F47B0024EA040024A806002400000024A6
:101FA00046AE0024F40400248805002410B5604BDC
:101FB000DA795B789A423DD15E4B1B7813F0200FA3
:101FC00038D15B4AD178927891423BD113F04004EA
:101FD00038D157498A79D2B20978914230D1564ADC
:101FE000527E002A34D1554A9179C9B21278914271
:101FF00000F0968013F001042ED1033AD2B2012AE8
:102000002FD94E4B9B79DBB2042B00F08B804B4BCE
:102010009B79DBB2032B40F08780484B1B6C13F09D
:10202000100F00F08380454A136C23F010031364F3
:10203000012405E03F4A137823F0200313700524A0
:10204000204610BD23F040033A4A13700624F7E7F8
:10205000FFF7FAFE0446F3E723F00103354A137055
:10206000EEE7364B9B79DBB2092B27D0334B9B79BC
:10207000DBB2062B2BD0324B1B78DBB2062B26D0E3
:102080002E4B9B79DBB2082B2AD02C4B9B79DBB2F1
:10209000042BBCD1284B5C7A012C37D1294854F051
:1020A00005F8264B1B6C13F0100F21D0234B1A6C34
:1020B00022F010021A6406229A71C1E71F4A136CBB
:1020C00043F004031364204B00221A709FE71B4A5D
:1020D000136C43F0040313641B4B00221A7096E741
:1020E0001A4B9A6842F002029A6004221A708EE734
:1020F000164B01221A709A6842F002029A600F4A47
:10210000136C43F010031364FF2499E7104853F055
:10211000CDFF0A4B04229A7101240C4B1C708FE7EF
:10212000FF248DE7FF248BE7012489E7FF2487E75D
:10213000A8080024F0040024F47B0024A80600244E
:1021400043AE00241CA7070846AE0024C8FF0024A5
:1021500050A7070808B531B1012920D01C4853F019
:10216000A5FF1C4808BD0138082816D8DFE800F094
:10217000052B07090B0D0F1113001748F2E717483D
:10218000F0E71748EEE71748ECE71748EAE7174883
:10219000E8E71048E6E71648E4E70E48E2E70138CA
:1021A00008280ED8DFE800F00511111111110709F8
:1021B0000B000948D6E70D48D4E70648D2E70C489B
:1021C000D0E70448CEE70B48CCE70B48CAE700BF8E
:1021D000FCA70708DCA7070884A707089CA707082F
:1021E000A8A70708B4A70708C4A70708D0A7070827
:1021F000E8A70708F0A7070890A7070810282AD81B
:10220000DFE800F013092B0B0D0F111517191B1D1B
:102210001F21232527001248704712487047124893
:10222000704712487047124870471248704712486A
:10223000704712487047124870471248704712485A
:10224000704712487047124870471248704712484A
:10225000704709487047084870471048704700BFEA
:102260002CA807085CA807086CA807087CA8070822
:102270008CA80708A0A80708A8A80708B4A80708FA
:10228000C8A80708D4A80708E8A80708FCA80708F2
:102290000CA907081CA907082CA9070844A80708C7
:1022A00010B5044601464A4853F098FE142C14D841
:1022B000142C10D8DFE804F0600D88585A5C5E6278
:1022C0006466686A6C6E70727A7C7E8082004148B7
:1022D00077E0414875E0414873E0A4F69F039BB264
:1022E0001C2B73D8A4F69F041C2C69D801A353F8A7
:1022F00024F000BFA5230208A1230208C12302087D
:10230000C1230208C1230208C1230208C123020815
:10231000CF220208C1230208C1230208C1230208F8
:10232000C1230208C1230208C1230208C1230208F5
:10233000C1230208C1230208C1230208C1230208E5
:10234000C1230208C5230208C1230208C1230208D1
:10235000C1230208C1230208C1230208C1230208C5
:10236000C1230208A92302081D482AE01D4828E0CD
:102370001D4826E01D4824E01D4822E0174820E0C3
:102380001C481EE01C481CE01C481AE01C4818E0D1
:102390001C4816E01C4814E01C4812E01C4810E0E1
:1023A0001C480EE017480CE016480AE01A4808E0FE
:1023B0001A4806E01A4804E01A4802E01A4800E009
:1023C000064810BD1948FCE71948FAE70348F8E742
:1023D000B8A9070848A907082CA80708A8A807084B
:1023E0005CA807086CA807087CA807088CA8070841
:1023F000A0A80708B4A80708C8A80708D4A8070811
:10240000E8A80708FCA807080CA907081CA90708E2
:102410002CA907085CA907086CA9070880A9070868
:102420008CA907089CA90708ACA9070838A90708C0
:1024300044A807080A281BD8DFE800F0061C080A91
:102440000C0E1012141618000B4870470B487047FA
:102450000B4870470B4870470B4870470B48704754
:102460000B4870470B4870470B4870470B48704744
:10247000044870470A487047E0A9070800AA0708FF
:102480000CAA070814AA07081CAA070828AA070804
:1024900030AA070838AA070844AA070854AA070858
:1024A000F0A90708072815D8B0B10138062807D8C1
:1024B000DFE800F0041408060A0C0E000848704714
:1024C00008487047084870470848704708487047F0
:1024D00008487047034870470248704706487047ED
:1024E00064AA070870AA070878AA070884AA070838
:1024F00090AA0708A4AA0708B0AA070801380E285E
:1025000013D8DFE800F0081212121212121212127F
:10251000140A0C0E10000748704707487047074818
:102520007047074870470748704705487047064896
:10253000704700BFC0AA0708D8AA0708E8AA07087A
:10254000F8AA07088C020808CCAA07080346042842
:1025500007D0052807D00548054A032B18BF1046A9
:102560007047044870470448704700BF00AB070835
:1025700014AA070808AB070814AB07081B4B9B7984
:10258000DBB2022B23D0194B9B79DBB2032B20D07B
:10259000164B9B79DBB2042B1DD0144B9B79DBB21D
:1025A000052B1AD0114B9B79DBB2062B17D00F4BA2
:1025B0009B79DBB2072B14D00C4B9B79DBB20A2B37
:1025C00011D00A4B9879003818BF012070470020BD
:1025D000704700207047002070470020704700209F
:1025E0007047002070470020704700BFA8060024F5
:1025F000934B5B78012B40F0908110B582B0914BEA
:102600001B781BB18E4B1B78012B0DD08E4BDB79C9
:10261000032B00F0F7802DD8012B49D0022B00F0BE
:102620002F81002002B010BD884B1B784BB9884B1E
:102630009B78DBB2092B07D0854B9B78DBB2012B53
:1026400002D006F063FFE1E7804B01221A707C485C
:10265000804B0193804B0093838806220021104415
:1026600006F04EFE08237A4A9370774A93717B4AAC
:102670009371CBE7FF2BD4D1784B9B79DBB2092B3D
:1026800009D0764B9B79DBB2082B04D0734B9B7936
:10269000DBB2012B07D16C4A0123D3717049CB7196
:1026A00082F8E930BDE7FFF769FF0028B9D0F2E70B
:1026B000654B5B78012BB4D1614B1B78022B41D069
:1026C000032B7ED0012BACD1664B1B7813B1664B2C
:1026D0001B787BB1654B1B78002BA2D0644809F0B6
:1026E0009DFFF0B108235A4A9370574A93715B4A91
:1026F000937196E701245C4B1C70C8201BF04CFBC7
:1027000021465B4817F0D0FA4F4A03235370082341
:102710004F498B709371514A93710A201BF03CFB17
:102720007FE7494B0222DA7108229A718022002148
:10273000504853F087FE504B002283F8382004F0B5
:1027400073FF6EE7474B1B7813B1474B1B7883B180
:10275000464B1B78002B3FF464AF454809F068FCFA
:10276000F0B108233A4A9370374A93713B4A937108
:1027700057E7C8201BF010FB01213D4817F094FAE1
:10278000394B01221A70304A032353700823304911
:102790008B709371314A93710A201BF0FDFA40E768
:1027A0000223294AD3712E4AD37180220021314855
:1027B00053F048FE304B002283F8382004F034FFF9
:1027C0002FE7284B1B78002B3FF42BAF264B1B78B1
:1027D000002B7FF426AFC8201BF0DEFA032124482B
:1027E00017F062FA204B01221A70174A0323537024
:1027F000082317498B709371184A93710A201BF0B4
:10280000CBFA0EE7104B5B78032B7FF40AAF174B24
:102810001B782BB105230C4AD371114AD37100E701
:10282000104B1B78002B3FF4FCAE144B1B78002B95
:102830003FF4F7AE0523044AD371094AD371F0E699
:10284000287500244EC60124A8080024E8040024AA
:1028500018120024619702085D970208A806002458
:10286000A80700244DC60124E90400244CC6012415
:102870002E750024AF8000248CFF00245E6C0124A0
:10288000274B9B782BB3264A928826490988914288
:102890000BD325480121C171244CE1714170013BEA
:1028A0001F498B701F4B002119801E4B1B8820492C
:1028B0000988994203D11F4B00221A70B1E61C49C6
:1028C0000B80D31A9BB2164989781B4853F086FBBC
:1028D000F1E71A4B1B78002B7FF4A3AE0024104BBA
:1028E0005C70114A5470FF23D37101239371144A11
:1028F0009371144A137080222146134853F0A2FDAD
:10290000124B83F8384004F08FFE114853F0CEFB91
:10291000104853F0CBFBFEF7E3FE0020704700BFEA
:1029200028750024EE040024A8080024A807002429
:10293000EC040024E90400241CAB07084DC6012464
:10294000A806002443AE0024AF8000248CFF00249E
:1029500078AB0708B4AB070810B598B0214C00223B
:1029600007A9204622F091FD00220CA9204622F062
:10297000B2FD9DF81C300F939DF81D300E939DF80D
:102980001E300D939DF8323010939DF831309DF834
:10299000332064321292013B11930DA853F09EFF35
:1029A000CDE9160116A853F0B0FD014600230093AF
:1029B000019302930393049305938DF818306846AE
:1029C00054F0B5FCFEF79EFEFFF730F919F056FB08
:1029D000DDE91601FFF70CFEFFF7E6F819F04EFBF4
:1029E00018B010BD6CCD012408B502481AF0C6F825
:1029F00008BD00BFE411002408B502481AF0C5F86C
:102A000008BD00BFE411002400B583B040F440408D
:102A1000030A8DF804308DF8050000238DF8063088
:102A20008DF80730FFF7E0FF04236A460DEB030142
:102A300006481AF055F8FFF7DFFF9DF802009DF8F1
:102A4000033043EA002003B05DF804FBE4110024E6
:102A500030B583B005460C4640F480431A0A8DF821
:102A600004208DF805300B0A8DF806308DF807101C
:102A7000FFF7BAFF04220DEB020106481AF055F8E1
:102A8000FFF7BAFF22462946034853F0A7FA03B0DE
:102A900030BD00BFE4110024F0AB07082DE9F04180
:102AA000C2B088461446374853F000FB21463648EA
:102AB00053F094FA4FF40070FFF7A6FF074604F1B5
:102AC0000A06B6B2864257D80146304853F086FA15
:102AD00031464FF48070FFF7BBFF02ADAA238DF89B
:102AE00008308DF809308DF80A308DF80B308DF8EC
:102AF0000C40230A8DF80D3000238DF80E308DF830
:102B00000F302246414604A854F019FC04F1080392
:102B10009BB25522EA5404F109039BB2EA5416F021
:102B2000010F03D00B340022AA55A6B200238DF862
:102B300004308DF80530FFF757FF154C022201A92C
:102B4000204619F0F2FF324602A9204619F0EDFFA7
:102B5000FFF752FF0F4853F0A9FA0A201BF01CF9A7
:102B60004FF40070FFF750FF01463A1A0A4853F03D
:102B700035FA42B0BDE8F08102463146074853F0CD
:102B80002DFAF6E71CAC070854AC0708A0AC070800
:102B9000E4110024BCAC0708E4AC070878AC0708D3
:102BA000F0B589B0844853F081FA4FF44070FFF7D4
:102BB0002BFF04460146814853F010FA631E9BB276
:102BC0004FF6FD72934232D8B4F5036F00F2CA801B
:102BD00014F0010F01D0611C8CB221464FF48070BB
:102BE000FFF736FF764E40F634020021304653F0B0
:102BF00029FC80238DF81C3000238DF81D30FFF751
:102C0000F3FE704D022207A9284619F08EFF2246D6
:102C10003146284619F08FFFFFF7EEFE2546032CBC
:102C200000F3C680684853F041FA09B0F0BD674828
:102C300053F03CFAF9E701348C42F3D013F8012B3E
:102C4000AA2AF8D11A78AA2AF5D15A78AA2AF2D152
:102C50009A78AA2AEFD121465D4853F0BFF9631D47
:102C6000AB4257DA564A11190E79D35C46EA03266D
:102C70003146584853F0B2F908343319AB424DDCB1
:102C80000D2ED2D94E4965182B7B6F7B47EA03275F
:102C90006B7902932B790193EB780093AB786A7888
:102CA000095D4D4853F09AF9EB7A0293AB7A0193A0
:102CB0006B7A00932B7AEA79A979484853F08EF918
:102CC0003946474853F08AF9464B1B7823B1464BA7
:102CD00093F8EB30592B25D048F6E1039F42A4D15D
:102CE000132EA2D92B7CEC7B44EA0324A97B3F481A
:102CF00053F074F921463E4853F070F946F2090347
:102D00009C422BD046F208039C428ED1394853F0A6
:102D1000CDF98AE7384853F0C9F986E7374853F0C8
:102D2000C5F982E7364CEB7A0493AB7A03936B7A5E
:102D300002932B7A0193EB790093AB79314A1821F6
:102D4000204653F0BBF921462F4853F047F95F2343
:102D500084F8A6305A2384F8A730BDE72B4853F0F7
:102D6000A5F962E74FF403614FF48070FFF770FE3E
:102D7000134D40F634020021284653F063FB8023B4
:102D80008DF81C3000238DF81D30FFF72DFE0D4C03
:102D9000022207A9204619F0C8FE4FF40362294613
:102DA000204619F0C8FEFFF727FE4FF403652C46B6
:102DB000034BE11E002441E70CAD070840AD0708B6
:102DC000AC090024E411002490AD07085CAD0708AD
:102DD00070AD0708B8AD0708F4AD070828AE0708BE
:102DE0005CAE0708A8090024A8060024ACAE0708BA
:102DF000C8AE070808AF0708A4AD0708D0AD07089C
:102E0000EC06002478AE070894AE0708E4AE070885
:102E100030B585B00446384D28682060A888A08069
:102E20000868C4F806008988618188212173E1213E
:102E300061730120A0730821E173602121740021D6
:102E40006174A174E0746161A161042525776177E3
:102E5000A177E1779DF8205084F820501568C4F8D8
:102E6000215095889279A4F8255084F8272084F879
:102E700028001D6858689A68DB68C4F82950C4F8AF
:102E80002D00C4F83120C4F8353084F8391084F8A6
:102E90003A1084F83B10194853F008F93C211848BF
:102EA00053F09CF86379029323790193E3780093BC
:102EB000A37862782178134853F090F8E37A02936C
:102EC000A37A0193637A0093237AE279A1790E4879
:102ED00053F084F8217B637B43EA01210B4853F0D4
:102EE0007DF8E17BA37B43EA0121094853F076F8A2
:102EF0003C2005B030BD00BFD0A3070830AF0708A5
:102F000060AF070884AF0708B8AF0708ECAF070841
:102F100008B0070870B582B023290ED90446037B98
:102F2000417B41EA032148F6E10399420AD0314846
:102F300053F054F8002002B070BD2F4853F0B6F89B
:102F40000020F8E7867B037CC57B45EA03252B48F8
:102F500053F0ACF831462A4853F040F82946294846
:102F600053F03CF846F209039D4209D046F20803AB
:102F70009D4239D02946244853F030F80020DAE742
:102F8000A57C224853F092F8214A224B002D08BF1D
:102F90001A462946204853F021F8A37D0093637D0B
:102FA000227DE17C1D4853F019F8A37E0093637ED7
:102FB000227EE17D1A4853F011F8E17E194853F062
:102FC0000DF8617F237F43EA0121174853F006F88B
:102FD000A17F164853F002F8E17F154852F0FEFF3A
:102FE000B5FA85F04009A6E7124853F05FF80020D3
:102FF000A1E700BF5CB0070838B007088CB007082D
:10300000ACB00708B8B10708B0B10708BCB00708F2
:1030100030B0070828B00708ECB0070804B107086B
:1030200024B1070848B1070858B1070868B1070874
:1030300078B107088CB1070810B5A2B004460A4859
:1030400053F034F800230093084B094A094902A8B9
:10305000FFF7DEFE024602A92046FFF71FFD0648E5
:1030600053F024F822B010BDCCB10708A8E8080836
:10307000A0E80808B8E80808FCB107082DE9F047FF
:1030800007460C461AF082FE05462146294852F0B2
:10309000A5FF4FF44076DFF8A880DFF89C9023E08E
:1030A000013383421DD012F8011BAA29F8D11178EF
:1030B000AA29F5D15178AA29F2D19178AA29EFD17C
:1030C00040F62B0293420CD809EB03025179127996
:1030D000083342EA012109EB0300FFF71BFF034617
:1030E00020BB32201AF058FE1AF050FE401BA042BE
:1030F00018D23046FFF788FC8246431E9BB24FF63B
:10310000FD729342EDD80146404652F067FF3846C3
:10311000FFF746FDBAF1030FE3DD074AAAF103000A
:103120000023C0E7054852F0C1FF00231846BDE860
:10313000F08700BF2CB20708AC0900247CB2070856
:1031400060B207082DE9F84F002940D080460E46AE
:103150000124DFF888A0DFF88890DFF888B013E05A
:103160001C4852F0A3FF4FF4FA701AF015FE07E066
:103170002146584652F032FF4FF4FA701AF00CFE16
:103180000134E4B2A6421ED332462146504652F0E4
:1031900025FF4FF40070FFF737FC0546014648460F
:1031A00052F01CFF7F2DDBD94046FFF745FF40F66C
:1031B000B8314046FFF762FF05460028D8D00648E0
:1031C00052F074FF00E000252846BDE8F88F002586
:1031D000FAE700BFDCB20708FCB20708A0B2070894
:1031E000C0B2070820B3070808B52B482B4B036073
:1031F0004FF40052828083604FF400428281036169
:103200004FF48042828283614FF480538383012391
:103210008377C377002380F8203080F82130436221
:1032200019F068FBD0B11E4852F040FF1D4B05223B
:103230001A704FF4FA701AF0AFFD4FF4D050FFF748
:10324000E3FB01464AF6552398420BD045F6A523E9
:10325000984207D0144852F0C1FE06E0134852F0DD
:1032600025FFE3E7124852F0B9FE01210846FFF7B7
:1032700069FF60B10F4852F019FF0F4852F016FF76
:103280000E4B1B780133DBB20C4A137008BD0C489F
:1032900052F00CFF0023F7E7E41100240004025869
:1032A00040B30708E0110024E8B307087CB307081F
:1032B000B0B3070814B4070838B40708A9090024F4
:1032C00054B4070808B5134B1B78E3B1012B1DD18B
:1032D000114B1B78DBB2022B18D1104B93F8443002
:1032E000A3B94FF44070FFF78FFB431E9BB24FF61C
:1032F000FD7293420AD80146094852F06FFE012040
:10330000FFF74EFC02E0034B01221A7018F0B6FEE4
:1033100008BD00BFA809002445AE0024A80600246B
:1033200070B4070810B584B004464FF0FF33009323
:10333000032303AAE0211C481FF0BCF878BB9DF8CA
:103340000EC09DF80C10CB43DBB2082207E0400012
:1033500080F03100C3B2013A12F0FF0205D058B23A
:103360000028F4DB5B00DBB2F5E79DF80DE08EEAA8
:103370000303082007E0520082F03102D3B2013883
:1033800010F0FF0005D05AB2002AF4DB5B00DBB27C
:10339000F5E79C4505D14EEA012EA4F800E004B003
:1033A00010BD0120FBE700BFE4C5012400B585B0D6
:1033B000030A8DF80C308DF80D004FF0FF330093A9
:1033C000022303AAE02103481EF09EFF05B05DF82A
:1033D00004FB00BFE4C5012470B582B006460D466B
:1033E00043F21750FFF7E2FF044601201AF0D4FC25
:1033F00047F6A240FFF7DAFF0443E4B20F201AF0C9
:10340000CBFC0DF10600FFF78DFF0443E4B201A8E9
:10341000FFF788FF0443E4B24BF29800FFF7C6FFC2
:1034200044EA000313F0FF0033D1BDF8063007EE85
:10343000903AF8EE677A9FED187A67EE877ADFEDBB
:10344000176A67EEA67A9FED167A77EEC77AB2EE24
:10345000027A67EE877AB1EE046A87EE867ADFED4C
:10346000117A77EE277AFCEEE77A17EE903A3380FE
:10347000BDF8043007EE903AF8EE677A9FED0A7ACD
:1034800067EE877A67EEA67AFCEEE77A17EE903A57
:103490002B8002B070BD00BF00002F4300008037BA
:1034A00000003442000000420000C84208B5084B4A
:1034B0001B78084A1370022B08D00749074A012BD2
:1034C00008BF1146064852F089FD08BD0549F9E7D5
:1034D000101200241112002490B40708A0B40708A9
:1034E000A8B4070898B40708B64B9B78DBB2042B46
:1034F00011D0B44B9B78DBB2032B0CD0B24B1B78B2
:10350000DBB2012B00F08880AF4B1B78DBB2062BBF
:1035100000F087807047AD4B1B78022B1ED0012B2B
:1035200038D0AB4A92F83A20C2EB02129000A94977
:103530000968B1EB820FC0F0C780A54A92F820203D
:10354000002A00F08C80A34A1268A149D1F8251006
:10355000002940F017819FEDA07A1CE19C4A92F867
:103560005920C2EB021290009A490968B1EB820F10
:10357000C0F0AE80964A92F83F20002A00F09C806E
:10358000944A12689249496C002940F00C819FEDE1
:10359000927A11E18E4AD27EC2EB021290008D49DE
:1035A0000968B1EB820FC0F0B780894A5278002ACF
:1035B00040F01A81894A92ED0D7A854AD2F80220AC
:1035C00007EE902A53E0864B00225A6370475B1A3D
:1035D0001344013BB3FBF2F307EE903AF8EE677A3F
:1035E0008EE0DFED7D7AB6E0DFED7B7A784BD3F8C5
:1035F0002D2007EE102A67EE877A794AC2ED0D7A00
:10360000D3F8363007EE103AB4EEE77AF1EE10FA5E
:1036100080D5734A53637047714B00225A631A6313
:1036200070476A4B1B78022B14D0012B684B0CBFE0
:10363000D3F80A30D3F8293007EE903A684B93ED6F
:103640000C7A77EE877A93ED0D7A77EE877AC3ED71
:103650000E7A70475E4B9B6C07EE903AEEE75F4A3E
:1036600092ED0D7A5A4AD2F8212007EE902A67EEA1
:10367000877A5B4AC2ED0C7A022B2CD0012B4ED0FC
:10368000534B93F83530C3EB03139900554A126836
:10369000B2EB830F97D9534B1B684D4AD2F83120B8
:1036A000002AA1D05B1A1344013BB3FBF2F307EEEF
:1036B000903AF8EE677A99E7484A92ED0D7A444AD3
:1036C000126C07EE902AD2E7454B00221A63D7E727
:1036D000434B00221A633E4B93F85430C3EB031361
:1036E0009900404A1268B2EB830F7FF66CAF3D4BF6
:1036F0001B68374A126D002A7FF469AFDFED367A16
:10370000334BDA6C07EE102A67EE877A344AC2ED43
:103710000D7AD3F8553075E7314B00221A632C4BE4
:103720009B7DC3EB031399002E4A1268B2EB830F03
:103730007FF649AF2B4B1B68254AD2F81220002A8E
:103740003FF44FAF5B1A1344013BB3FBF2F307EEB8
:10375000903AF8EE677A1E4BD3F80E2007EE102A47
:1037600067EE877A1E4AC2ED0D7AD3F8173049E723
:10377000013A121A0A44B2FBF1F207EE902AB8EEAF
:10378000677A3AE0013A121A0A44B2FBF1F207EE04
:10379000902AB8EE677A0E4AD2F8212007EE902AD6
:1037A00067EE877A65E7013A121A0A44B2FBF1F232
:1037B00007EE902AB8EE677A054A126C07EE902A57
:1037C000EEE700BF1812002443AE002411120024BB
:1037D00040210024C81E002400000000A004002492
:1037E000A8060024CC1E0024074A12680749D1F815
:1037F00006100029BCD19FED067A044AD2F80220B7
:1038000007EE902ACCE700BFC81E00244021002408
:103810000000000000B583B06F4B1B78012B71D9FD
:10382000022B00F089806D4BD3F8293007EE903AD7
:10383000B7EEE77A53EC172B69494FF4C64002F014
:1038400035FA654B1B78022B7BD0012B00F08D8065
:10385000624B93F820206349634B002A18BF194636
:103860005E4BD3F8212007EE102AB7EEC77AD3F8C3
:1038700025305E4AA2FB03235B09009353EC172B10
:1038800046F2403002F012FA534B1B78022B00F044
:103890008180012B00F08A80504BD3F82D2007EE59
:1038A000102AB7EEC77AD3F83130504AA2FB03236F
:1038B0005B09009353EC172B4B494FF4C74002F0C0
:1038C000F5F9454B1B78022B7ED0012B434B0CBFE7
:1038D000DA7E93F83A20464946F2204002F0E6F9B3
:1038E0003D4B1B78022B73D0012B3C4B0CBF9A7DB8
:1038F00093F835203E4946F2604002F0D7F903B014
:103900005DF804FB0D2002F031F9334B1B78002BDE
:1039100046F2205114BF0A200B2002F061F92E4B11
:103920001B78022B08D0012B7FF47DAF2B4BD3F8F3
:103930000A3007EE903A7BE7284B9B6C07EE903AF3
:1039400076E7264B93F83F202649274B002A18BFDD
:103950001946224B1A6C07EE102AB7EEC77A5B6C39
:10396000224AA2FB03235B0987E71C4B5A781D49B7
:103970001D4B002A18BF1946184BD3F8022007EE3A
:10398000102AB7EEC77AD3F80630184AA2FB0323F1
:103990005B0972E7114BDA6C07EE102AB7EEC77AB3
:1039A0001B6D124AA2FB03235B0982E70B4BD3F882
:1039B0000E2007EE102AB7EEC77AD3F812300B4A62
:1039C000A2FB03235B0974E7044B93F8592082E7B9
:1039D000024B93F854208DE711120024402100245B
:1039E000E4B40708D8B40708C8B4070889888888E9
:1039F000F4B40708704700000F4B1B78DBB207EEEA
:103A0000903AF8EEE77AF4EEC07AF1EE10FA0AD5C1
:103A1000094B1B78DBB200EE103AB8EE400A074BB8
:103A200083ED000A7047B5EEC00AF1EE10FA48BF08
:103A30009FED030AF3E700BF47AE002420AE002449
:103A40000000000008B5FF23094A13700021094A4D
:103A5000D170094A1170094A1160094A1370094B63
:103A600000221A607022084852F0ECFC08BD00BF2A
:103A70000D000024E81B0024901B00248C1B002454
:103A800001000024881B00241872002430B58BB07C
:103A90000146002303930493059306930793089329
:103AA0008DF8243003A853F042FC9DF817308DF8B0
:103AB00008309DF818308DF809309DF81A308DF8CF
:103AC00004309DF81B308DF805309DF81D308DF8C1
:103AD00000309DF81E308DF8013002A850F09BFB9D
:103AE000054601A850F097FB0446684650F093FB4A
:103AF000EBB2C3EB0312E3B203EB8203C3EB03139A
:103B0000C0B200EB83000BB030BD000010B586B032
:103B1000494C00226946204621F0B7FC002205A945
:103B2000204621F0D8FC45489DF8003083609DF880
:103B3000013043609DF8023003609DF81630C36089
:103B40009DF815309DF8172064324261013B0361F6
:103B500052F0C4FE3A4BC3E900013A4BD3ED007A70
:103B6000F5EE407AF1EE10FA12D1374B9B7A07EE60
:103B7000903AF8EE677A334AC2ED007A43B9334B94
:103B80001B78DBB207EE903AF8EE677AC2ED007A66
:103B90002F4B1B78FF2B31D02E4B1A682E4B1A60FF
:103BA0002A4B1B78DBB22C4A92ED007A07EE903A52
:103BB000F8EEE77AF4EEC77AF1EE10FA2ED5234B41
:103BC0001B78DBB207EE903AF8EE677AC2ED007A26
:103BD000214B1B68214A1360214A1360184852F098
:103BE00094FCFFF753FF1AF0D1F81E4B1B68C01A64
:103BF00041F2873398421AD806B010BD1A4B9B7811
:103C0000012B06D00F4B1B68134A1360114A136037
:103C1000C6E7104B1A68104B1A60C1E7B5EEC07AC0
:103C2000F1EE10FAD4D50C4B00221A60D0E71AF04E
:103C3000ADF80C4B1860DFE76CCD0124BC1B0024F1
:103C4000E01B0024941B00248CFF002447AE0024BA
:103C50000D00002420AE0024981B002448AE002450
:103C6000AC1B0024B41B0024E81B00242DE9F04FFA
:103C70002DED048BBBB004460021A64B9970702239
:103C80001EA852F0DFFBA449204652F028FCE0B108
:103C90000022159215AAA1490C3052F067FA9DF83E
:103CA00054309F4A52789A4213D09D4A128E013A5C
:103CB00092B24FF6FD718A4240F22082984A92F801
:103CC00071209A4203D0002529E20023E9E701256B
:103CD00000E00025EDB225E20125FBE7914852F016
:103CE000E5F90020C3E1FF228F4B1A7000238F49B2
:103CF0000B608F490A70874A93708E4852F0D6F94C
:103D000015E28D49204652F0EAFB002840F023825C
:103D10008A49204652F0E3FB002800F0DD81884903
:103D2000204652F0DCFB002800F0D88100230B93E2
:103D300021E200230B931EE200230B931BE20023DE
:103D400006931E4629E20023079339E200230893D5
:103D500048E20023089345E27849204652F0BFFB31
:103D600010B1022309934DE27349204652F0B7FB8C
:103D7000031E18BF0123099344E20023099343E281
:103D80007049204652F0ABFB003818BF01204FEAC3
:103D9000400B42E200230A9356E21A9B64331A93C3
:103DA000199B013B199315A852F098FD0C9001E066
:103DB00000230C936449204652F091FB07460028EB
:103DC00040D0624952F08BFB002832D0022304938A
:103DD0000136F6B25E49204652F081FB002834D00D
:103DE0000022159215AA5B49113052F0BFF99DEDE2
:103DF000158A0136F6B25849204652F070FB002869
:103E000000F0F2805549204652F069FB80460028B8
:103E100000F0ED805249204652F061FB002800F08E
:103E2000E9800027DFF83491DFF848A10D943C4683
:103E300012E04C49384652F052FB031E18BF0123D2
:103E40000493C5E700230493C4E79FED4B8AD2E7B0
:103E5000FCB20137092F22D04946404652F03FFBC1
:103E600080460028F5D00023159300F10D0815AA0F
:103E70003D49404652F07AF9159B3AAA02EB870277
:103E800042F8683C534502D9BBF1010F05D0374ACF
:103E90009342DDD9BBF1020FDAD10020E7E00594AF
:103EA0000D9C2D49204652F01AFB07460DF1B00833
:103EB0000DF1D40ADFF8A8909FED2F9ADFED2C8A40
:103EC000049C03E008F10408D0451BD0494638465D
:103ED00052F005FB07460028F4D08DED159A073700
:103EE00015AA1C49384652F041F9DDED157AC8EDA6
:103EF000007A012CE6D1F4EEE87AF1EE10FAE1DD79
:103F00000020B4E00D9C059B082B00F2E9800136EF
:103F1000F6B23AE0E81B002400B507080CB5070824
:103F200088720024B8B607080E000024A41B0024E1
:103F30000C000024ECB607082CB5070848B50708A4
:103F400054B50708A4B5070810B6070824B6070833
:103F50002CB607083CB6070840B6070858B607084D
:103F600064B6070828B6070854D00708803A090045
:103F70000000A042805101000000000000230C93CB
:103F80001FED038A0A93059304935649204652F085
:103F9000A6FA00283CD015AB039316AB029317ABDF
:103FA000019318AB009319AB1AAA4F490E3052F087
:103FB000DDF8062821D000274C49204652F08FFA20
:103FC000002850D015AB039316AB029317AB0193A7
:103FD00018AB009319AB1AAA43490C3052F0C6F83B
:103FE000062836D000203FE000230593CDE70023CC
:103FF0000593CAE700230593C7E71A9B64331A9316
:10400000199B013B199315A852F068FC0746D3E7AA
:10401000374F002210A9384621F037FA00220FA9A5
:10402000384621F058FA9DF8403017939DF84130FA
:1040300016939DF83E3018939DF83D309DF83F2033
:1040400064321A92013B199315A852F047FC0746B7
:10405000B2E71A9B64331A93199B013B199315A875
:1040600052F03CFC00E00020032E05D800203BB0BD
:10407000BDEC048BBDE8F08F089B8DF87830079B72
:104080008DF87930099B8DF87B308DF87CB0049BDE
:104090008DF87D30059B8DF87E300A9B2993069B19
:1040A000ADF8A8308DED2B8A0B9B35933697379062
:1040B0000C9B3893C5EBC50570221EA90D4800EB7B
:1040C000051053F03CF90C4851F0F0FF06F04EF9A2
:1040D0000120CCE70020CAE70020C8E70020C6E79F
:1040E0000020C4E76CB60708CCB5070894B60708EB
:1040F0006CCD01248872002430B70708604A92F81A
:1041000071209A423FF4E8AD5D4BB3F8A050013DF9
:10411000ADB24FF6FD739D4294BF02250125022DDD
:104120003FF4DCAD574B1B78AB423FF4DCAD564956
:10413000204652F0D4F900283FF4E3AD534920461D
:1041400052F0CDF90028C5D05149204652F0C7F9A8
:1041500000283FF4EEAD4F49204652F0C0F9002848
:104160003FF4EAAD0022159215AA4B490C3051F0EC
:10417000FDFF159B0B934949204652F0B0F90028EA
:104180003FF4DDAD0022159215AA4549133051F0D8
:10419000EDFFBDF85430069301264249204652F007
:1041A0009EF900283FF4CFAD0022159215AA3C4994
:1041B0000C3051F0DBFF9DF8543007930136F6B216
:1041C0003949204652F08BF900283FF4BFAD3749FA
:1041D0000B3052F084F900283FF4BBAD0136F6B243
:1041E000012308933249204652F079F900283FF420
:1041F000C4AD2549204652F072F900283FF4ACAD19
:10420000012309930136F6B22A49204652F067F994
:1042100000283FF4B5AD4FF0010B2749204652F07E
:104220005EF900283FF4AAAE2449204652F057F91F
:1042300000283FF4AFAD0022159215AA18490A30A4
:1042400051F094FF159B0A931049204652F047F90C
:1042500000283FF4ADAD15AB039316AB029317AB3B
:10426000019318AB009319AB1AAA1549123051F0FB
:104270007DFF06283FF491AD00230C939AE500BF23
:10428000887200240E00002410B507081CB507082A
:104290002CB5070838B5070854D0070864B50708D7
:1042A0000CB5070800B5070878B50708A42A080860
:1042B00088B507089CB50708ACB50708C0B507085E
:1042C000CCB5070810B50146144C40F2FF722046E9
:1042D00052F0F2F8002384F8FF371149204652F0DB
:1042E000FEF888B13A2152F0B5F868B1421C437823
:1042F00003F0FD01202905D112F8013F03F0FD0173
:104300002029F9D0302B06D0064851F0CFFE0348C3
:10431000FFF7ACFC10BD31231370F5E788130024C0
:1043200078B5070858B707082DE9F04F2DED028B37
:10433000B9B00446702200210DEB020052F082F861
:10434000A649204652F0CBF8002800F05D820022FA
:10435000139213AAA2490F3051F008FFDDF84C80E8
:10436000A04B5B68434505D0002039B0BDEC028B03
:10437000BDE8F08F9C49204652F0B1F8002875D076
:104380009A490B3052F0ABF8031E18BF01230A9371
:104390009749204652F0A3F800286AD000221392D1
:1043A00013AA9449133051F0E1FEBDF84C30089344
:1043B00002259149204652F092F800285DD0002253
:1043C000139213AA8B490C3051F0D0FE9DF84C305B
:1043D00009930135EDB28949204652F080F8002852
:1043E00060D08749204652F07AF8002848D001234F
:1043F0000D930135EDB28349204652F070F8002844
:1044000053D0012305938049204652F068F80028D4
:1044100000F05B817D49204652F061F800284ED0C3
:104420000022139213AA73490A3051F09FFE139A87
:10443000774B9A4288BF00220B927649204652F071
:104440004EF8002852D013AB039314AB029315AB74
:10445000019316AB009317AB18AA6F49123051F0B5
:1044600085FE06282ED000230C9341E000230A93FA
:104470008EE70023089301259BE700230993AAE711
:104480006649204652F02BF810B102230D93B0E795
:104490006349204652F023F8002814BF0323002369
:1044A0000D93A6E700230D93A5E75E49204652F041
:1044B00016F8003818BF012043000593A3E7002336
:1044C0000B93BAE7189B64331893179B013B179320
:1044D00013A852F003FA109011910C9010A852F00A
:1044E00014F80146504851F079FD01E000230C9387
:1044F0004E49204651F0F3FF0646002844D04C496F
:1045000051F0EDFF002836D0022306930135EDB2BD
:104510004849204651F0E3FF002838D0002213928A
:1045200013AA4549113051F021FE9DED138A013542
:10453000EDB24249204651F0D2FF002800F0E3805E
:104540003F49204651F0CBFF0746002800F0DE80AF
:104550003C49204651F0C3FF002800F0DA800026D5
:10456000DFF8DC90DFF878B0DFF8E4A00E95354690
:104570000F94059C12E03449304651F0B0FF031E01
:1045800018BF01230693C1E700230693C0E79FED00
:104590002F8ACEE7F5B20136092E5BD04946384660
:1045A00051F09DFF07460028F5D0002313930D37E7
:1045B00013AA5946384651F0D9FD139B38AA02EB8D
:1045C000860242F8683C534501D9012C04D0104AB8
:1045D0009342DFD9022CDDD10020C6E638B50708AA
:1045E00054D00708C8FF002478B50708A42A080893
:1045F00064B507080CB5070800B5070888B50708B3
:1046000010B507089CB50708ACB50708C0B5070882
:10461000803A09001CB50708CCB5070848B507085B
:104620002CB50708A4B5070844B8070810B6070852
:1046300024B607082CB607083CB6070840B607089A
:1046400058B6070864B6070828B607080000000037
:104650008051010007950E9D0F9C6D49204651F039
:104660003EFF06462AAF0DF1CC0ADFF8D8914FF095
:10467000000BDFED688A0E94069C02E00437574574
:104680001BD04946304651F02AFF06460028F5D097
:10469000CDF84CB0073613AA5F49304651F066FD9D
:1046A000DDED137AC7ED007A012CE7D1F4EEE87A5C
:1046B000F1EE10FAE2DD002057E60E9C079B082B76
:1046C00000F2A4800135EDB206E000230C939FEDCB
:1046D000538A0B93079306935149204651F0FFFEEE
:1046E00028B313AB039314AB029315AB019316AB32
:1046F000009317AB18AA4B490E3051F037FD06282E
:104700000AD0002614E000230793E5E7002307936F
:10471000E2E700230793DFE7189B64331893179BA6
:10472000013B179313A852F0D9F8064600E0002683
:104730003D49204651F0D3FE78B113AB039314AB3F
:10474000029315AB019316AB009317AB18AA35492A
:104750000C3051F00BFD062803D0022D0DD800209F
:1047600003E6189B64331893179B013B179313A818
:1047700052F0B4F82D4B5866EFE7FFF763F90A9B48
:104780008DF87030099B8DF871300D9B8DF873306A
:10479000059B8DF87430069B8DF87530079B8DF85E
:1047A00076300B9B2793089BADF8A0308DED298ABE
:1047B000CDF8CC8034960C9B36931C4C70220DEBBC
:1047C0000201204652F0BBFDA168194851F006FCD9
:1047D000E168184851F002FCD4ED0E7AB7EEE77AA2
:1047E00053EC172B144851F0F9FBD4ED0F7AB7EEC8
:1047F000E77A53EC172B114851F0F0FBE16A1048AF
:1048000051F0ECFB0120B0E50020AEE50020ACE566
:1048100040B607080000A0423CB6070800000000B0
:104820006CB60708CCB5070894B6070818720024C0
:1048300094B70708C4B70708F4B707081CB80708F7
:1048400074B8070864B6070810B50446FF21417024
:104850000170017141718171C17081704FF6FF73F8
:10486000C36203864FF0FF338366036643664FF0EF
:104870009F4343632422083051F0E4FD04F13803E0
:104880005C344FF09F4243F8042BA342FBD1034812
:1048900051F00CFC05F06AFD012010BDA0B807081E
:1048A00030B583B004461E4951F019FEF0B1002224
:1048B000019201AA1B490C3051F058FC9DF804509C
:1048C0001949204651F00BFE30B318490B3051F016
:1048D00006FE18B3164B5B78AB420BD0144B93F823
:1048E0007130AB4204D0002003B030BD0025E7E7B3
:1048F000012300E000235B4203F070030C481844DE
:10490000FFF7A2FF0B4851F0D1FB0B4B00221A70AE
:1049100005F02CFD0120E7E70020E5E70020E3E7B4
:1049200000B507080CB5070878B507082024080863
:1049300048740024C4B80708E81B002430B583B0CD
:104940000446334951F0CBFD58B30022019201AA2D
:1049500030490C3051F00AFC9DF804502E49204695
:1049600051F0BDFD044600284ED00B342B492046A3
:1049700051F0B5FD58B32A4B5B78AB4215D0284BAC
:1049800093F87130AB420ED02649204651F0A7FD76
:1049900028B1234B93F87130AB4233D0002003B0E1
:1049A00030BD0025DAE7012300E000235B4203F07D
:1049B00070031B481844FFF747FF1B4851F076FB74
:1049C0001A4B00229A7005F0D1FC0120E7E7154947
:1049D000204651F084FDC8B1114B5B78AB42D8D171
:1049E00000235B4203F070030D481844FFF72CFFCF
:1049F0000F4851F05BFB0D4B00229A7005F0B6FC9E
:104A00000120CCE70123ECE70020C8E70020C6E73F
:104A100000B507080CB5070878B50708A42A0808E8
:104A20008872002484B50708E4B80708E81B00244E
:104A30000CB9070830B583B00446114951F04FFD59
:104A4000C8B10022019201AA0E490C3051F08EFB30
:104A50009DF804500C49204651F041FD40B10B49EE
:104A60000B3051F03CFD18B1094B5B78AB4204D0E0
:104A7000012003B030BD0025ECE7FEF7E3FFF7E7C8
:104A800000B507080CB5070878B50708A42A080878
:104A900018720024F0EE407A012806D0022805D1D1
:104AA0009FED047A87EE870A704770479FED020AF0
:104AB000704700BF00005C430000000030B52DEDE2
:104AC000028B85B00446154B03EB8003D3ED0E8AB1
:104AD000F5EE408AF1EE10FA1BD00D460F4B5879D7
:104AE000B0EE680AFFF7D6FFB0EE408AFEF784FF0B
:104AF0000295B7EEC80A8DED000BB7EEE87A53ECDD
:104B0000172B2146064851F069FA05B0BDEC028B1F
:104B100030BD0146034851F061FAF6E718720024EF
:104B200078B9070840B907082DE9F04F2DED028B41
:104B300093B0BA4C00220CA9204620F0A6FC00221B
:104B400011A9204620F0C7FCB5489DF8303083609D
:104B50009DF8313043609DF8323003609DF8463057
:104B6000C3609DF845309DF8472064324261013BA7
:104B7000036151F0B3FEAB4BC3E90001184651F09D
:104B8000C4FC014602900023059306930793089303
:104B900009930A938DF82C3005A852F0C8FBA2495E
:104BA00005A851F09CFC0446A04905A851F097FCCB
:104BB000002848D002249E4905A851F090FC002806
:104BC00018BF03249B4905A851F089FC002818BF91
:104BD0000424994905A851F082FC002818BF052437
:104BE000964905A851F07BFC002818BF0624944B79
:104BF0001D78FF2D2BD0934B9B78012B00F0D98192
:104C0000884B1D685E6819F0C1F88F4B1C6824B191
:104C1000041B8E4BA3FB0434A4098D4B9B79DBB2A0
:104C2000032B00F012838A4B9B79DBB2042B00F03C
:104C30000C83884B1B78002B40F0018313B0BDEC34
:104C4000028BBDE8F08F003C18BF0124B3E7824B14
:104C50001B78FF2BD4D10025DFF800B2DFF8C48128
:104C6000039422E0C5EBC5030BEB03139A6ED8F84F
:104C70000010D8F80430914273F1000360DAC4EBFD
:104C8000C4030BEB03135A6ED8F80030D8F80410A5
:104C90009A424FF000038B4102DA002A40F07F81F4
:104CA0000135EDB2012D00F272812C46C5EBC50332
:104CB0000BEB0313DB78012BD4D0022BDFD1C5EB38
:104CC000C5030BEB03131E79012E6FD0022ED6D134
:104CD000BDF83030002B40F0DB80039B002B40F010
:104CE000D780C5EBC5035D4E06EB0316F36A4FF4A0
:104CF0007A7202FB03F35A490B605A4B0021197078
:104D0000B36802FB03F3584A13604D4B1D7019F052
:104D10003DF8564B186019F039F8554B1860494B5F
:104D200001229A702946534851F058F9D6ED0E7A6F
:104D3000B7EEE77A53EC172B4F4851F04FF99EE747
:104D40009DF83030C3EB03129DF8313003EB820342
:104D5000C3EB03139DF8327007EB83076E4206F036
:104D60007006464B1E440022C5EBC5033B4901EBD0
:104D700003194FF0010A56F8043FBB42FBD896EDE9
:104D80000C0AB5EE400AF1EE10FA07D099F80500CA
:104D9000FFF780FEB0EE408A5246ECE712B1384B86
:104DA00083ED008A274B01229A7068E79DF8303026
:104DB000C3EB03129DF8313003EB8203C3EB031303
:104DC0009DF8327007EB83076E4206F070062B4B9E
:104DD0001E44DFF8AC90C5EBC503204A02EB031A72
:104DE00009E0D9ED007AB7EEE77A53EC172B2146AC
:104DF000244851F0F3F856F8043FBB42F1D896ED41
:104E00000C0AB5EE400AF1EE10FA3DD09AF8050012
:104E1000FFF740FE89ED000AEDE700BF6CCD0124ED
:104E2000BC1B0024E01B0024C4B90708C8B907084C
:104E3000CCB90708D0B90708D4B90708D8B907080A
:104E40000E000024E81B00248C1B0024D34D6210AC
:104E5000A8060024901B00240D0000248872002462
:104E6000A41B00240C0000249C1B0024A81B00246D
:104E7000A01B002414BA070850BA07088C7200243B
:104E800020AE0024DCB90708B74B01229A70F6E681
:104E90009DF83030C3EB03129DF8313003EB8203F1
:104EA000C3EB03139DF832C00CEB830CAF4B039A9A
:104EB00003FB02CC6A4202F07002131DAC490B44A2
:104EC000283111440020AB4F53F8042FBA4298BF49
:104ED00080188B42F8D160457FF6D1AEC4EBC40296
:104EE000A34B03EB021398790027A14992005FFAC4
:104EF00087F902EB0903023351F82330634506D8E2
:104F0000ACEB030C0137FBB29842F0D2B7E6A3EB4F
:104F10000C0AC4EBC404964B03EB0413DC6A0CB11B
:104F2000A4EB0C0418F032FF934B186018F02EFF1E
:104F3000924B1860924B1D708B4B01229A70914BD3
:104F40001F704FF47A7303FB0AF18F4A116004FB60
:104F500003F38E4A136049468D4851F03FF851469D
:104F60008C4851F03BF821468B4851F037F80299B4
:104F70008A4851F033F87E4BD3F84421884B1868A7
:104F8000596882424FF000038B4100DA2AB97C4B0A
:104F90001D78FF2D3FF434AE2DE635460224C4EBD8
:104FA000C4040BEB0410FFF74FFC7E4851F07EF871
:104FB00076E6744B1C78FF2C62D06D4EEF00C5EB8B
:104FC000C50306EB031393F80580C5EBC50304EB9B
:104FD000830306EB8303404693ED0E0AFFF75AFD69
:104FE000714B83ED000A7F1B06EB0716404696EDDA
:104FF0000D0AFFF74FFD6D4B83ED000AC5EBC502AF
:105000005B4B03EB02135B79012B57D0022B7ED055
:1050100018F0BCFE584B1B68C01A5C4B1B68013B68
:10502000984200F2CF8018F0B1FE544B1B68C01AB2
:10503000554B1B689842FFF4E3AD524B1B78FF2B96
:105040003FF4DEAD4E4A1278C2EBC202484901EB92
:10505000021292799A4200F2D2804C4B1B683BB903
:10506000474BFF221A700023484A13603E4A937050
:10507000444BFF221A7002994D4850F0AFFFBFE534
:105080003B4FEE00C5EBC50307EB031393F8058018
:10509000484B93ED000A4046F6EE007A20EE270AD0
:1050A000FFF7F8FC404B83ED000A731B07EB031777
:1050B000404697ED0D0AFFF7EDFC9CE704EB8205F7
:1050C0002B4B03EB850393ED0E7ADFED3B7AB4EEC9
:1050D000E77AF1EE10FA9BDD364B93ED000A0120E2
:1050E000F6EE007A20EE270AFFF7D4FC2E4B83ED74
:1050F000000AFF22224B1A70002324490B60214929
:105100000A70194A93702D4850F0D0FF80E7C5EB24
:10511000C50104EB8104164B03EB840393ED0E7A77
:10512000DFED277AB4EEE77AF1EE10FA7FF770AF91
:10513000204B93ED000A0220F6EE007A20EE270ABB
:10514000FFF7A8FC184B83ED000AFF220C4B1A70E6
:1051500000230E490B600B490A70034A93701748ED
:1051600050F0A4FF54E700BFE81B00248051010069
:105170008872002400E90700A81B0024A01B00245B
:105180000E0000240C0000249C1B0024A41B0024FF
:1051900074BA07089CBA0708CCBA0708F4BA07081B
:1051A000E01B002418BB070820AE002404000024E4
:1051B000C8BB0708080000240000A04244BB070841
:1051C00000409C46714B1B78FF2B06D0704B002291
:1051D0001A60704850F06AFF25E7FF226E4B1A7084
:1051E00000236B490B6069490A706C4A93706948E7
:1051F00050F05CFF02996A4850F0F0FE13E7634CF0
:105200000133237018F0C2FD664B18602178624BA1
:105210001B78C3EBC30301EB83030233624A52F8EA
:1052200023304FF47A7202FB03F3604A1360604844
:1052300050F0D4FE02995F4850F0D0FEE0E45E48A2
:1052400050F034FFFEF7FEFBF8E45C4B1B78032BB9
:105250003FF6F4ACDFE803F002355587584B1B7876
:10526000FF2B7FF4EBAC574BDB7803F0FD02012AF8
:105270007FF4E4AC012B06D1524B9B6E9D4276F13C
:105280000006FFF6DBAC504B1860504BFF221A7043
:1052900001234B4A1370414AD3704D4AD2ED007A34
:1052A0004C4AC2ED007A454A137005AB0093B7EE45
:1052B000E77A53EC172B43498968474850F08EFE34
:1052C000BCE4404BDB6A013BA34212D33D4B9B68DD
:1052D0009C42FFF4B3AC00203C4B187005A9FFF7CB
:1052E000EDFB364B02221A7021463C4850F076FE08
:1052F000A4E405A93A4850F071FE304B03221A701D
:105300009CE4304BDB6A013B9C4223D82F4B18783E
:105310000130C0B22B4B997988423FF68FAC831C89
:10532000284A52F823309C42FFF488AC88420BD2C2
:10533000821C244B03EB820353F8042F944203D3C3
:105340000130C0B28142F7D8204B187005A9FFF791
:10535000B5FB73E405AA2146224850F03FFE174BE7
:1053600003221A706AE41B4B93ED008AB0EE480AE0
:10537000FEF742FB05AB0093B7EEC87A53EC172B50
:10538000194850F02BFEFEF75DFB57E40C0000249B
:10539000A41B002470BB07080E000024E81B002497
:1053A000A4BB0708A01B0024887200249C1B0024B7
:1053B00000BC070830BC070858BC0708901B002435
:1053C0000D000024187200248C1B0024010000240E
:1053D00020AE0024881B002490BC070820BD0708CD
:1053E000E4BC070850BD070890BD070808B5164B78
:1053F0001B78042B07D8DFE803F003090D06130020
:10540000114B01221A7016F039FE08BD0E4B022214
:105410001A70F8E7FFF788FB0B4B04221A70F2E7CB
:1054200018F0B4FC094B1B68C01AB0F5167F03D204
:10543000054B00221A70E6E7FEF768FB18F0A6FCA1
:10544000024B1860F4E700BFB01B0024B81B002417
:1054500010B5154B00221A709A70DA70134B1B7836
:10546000012B1DD00023124A1370124A1360124BF5
:10547000FF221A70114B00221A600C4B1978104849
:1054800050F0ACFD084C21780E4850F0A7FDA178F3
:105490000D4850F0A3FDE1780C4850F09FFD10BD81
:1054A000024BFF221A70DDE7E81B00240D000024E8
:1054B000901B00248C1B002401000024881B002466
:1054C000CCBD0708F0BD07081CBE070850BE070882
:1054D00070B504460E462C4951F001F805462B499B
:1054E00050F0FDFF68B12046FFF7DAF920B1012145
:1054F00030460CF041FE70BD0E2130460CF03CFEF3
:10550000F9E72349284650F0EAFF68B12046FFF743
:1055100015FA20B1012130460CF02EFEEBE70E21EA
:1055200030460CF029FEE6E71A49284650F0D7FF2E
:1055300068B12046FFF77EFA20B1012130460CF019
:105540001BFED8E70E2130460CF016FED3E71248BA
:1055500050F044FD04F0B6FE04F064FEFFF778FF5F
:10556000FEF770FA0D4B9B7A07EE903AF8EE677AE9
:105570000B4BC3ED007A0B4BC3ED007A0121304693
:105580000CF0FAFDB7E700BF80BE070898BE070819
:10559000B0BE0708C4BE0708D0BE07088CFF0024B1
:1055A000941B002420AE002438B504460368B3F1F0
:1055B000804F04D02268284B9A4225D038BD037F03
:1055C000012BFBD1002121F062FE05460028F1D01D
:1055D0000421204621F05BFE07EE900A1F4AF8EEF8
:1055E000677A9FED1F7A67EE877A06EE905AB8EEDB
:1055F000666AC7EE866A37EE667A82ED017A194BE3
:10560000B3FBF5F31360D5E7237F012BD6D100213F
:10561000204621F03CFE144B1B68834213D8C31A6A
:10562000114A10609BB107EE903AF8EE677ADFED11
:105630000F6A86EEA77AFCEEC77A17EE903A5B08FF
:10564000064A9360BAE7C3F580330344E8E7034BA7
:1056500000229A60B2E700BF00040040F81B00245B
:105660000000C84200D8B805F01B0024001BB74C4E
:10567000094B1B8883420ED0074B1880074BA3FBB6
:105680000023DB08064A137000EB4000C000054B06
:105690005863054B18807047EE1B0024CDCCCCCC52
:1056A000F41B002400080040F61B002410B5094C30
:1056B0000021204622F044FD0421204622F050FC27
:1056C0000021054822F03CFD0021044822F060FB47
:1056D00010BD00BF1CD00124D0CF012484CF0124F1
:1056E000104B1B78E3B1104A138801339BB213802F
:1056F000B3F5AF7F04D80D4B4FF400729A61704739
:10570000B3F52F7F04D8094B4FF000729A617047B0
:10571000054B00221A80034A1378013BDBB2137059
:10572000704700BF0F000024041C0024000402582E
:10573000024B1870024B00221A8070470F000024A1
:10574000041C0024D1B100B58C46411E8C444FF09E
:10575000FF304FF0080E0D4A01E0614512D011F8FC
:10576000013F5840734610F0010F14BF82EA500009
:105770004008013B13F0FF03F5D1EEE74FF0FF3097
:10578000C0437047C0435DF804FB00BF2083B8ED01
:1057900008B5802110481CF06BFB20B90F4A137824
:1057A00043F0010313704FF480710B481CF060FB51
:1057B00020B90A4A137843F0020313704FF40071C2
:1057C00005481CF055FB20B9044A137843F0040344
:1057D0001370024B187808BD00100258EC1B00240F
:1057E000F8B515F0EDF98D4850F060FC4FF4FA7003
:1057F00018F0D2FA00F09CF9894850F057FC4FF4A9
:10580000FA7018F0C9FA04F0E1FE864850F04EFC38
:105810004FF4FA7018F0C0FA0024834F834D844E81
:105820000CE03A6829464FF4505000F0D7FA32683D
:1058300029464FF4515000F0D1FA013441F20221CF
:10584000204600F0CDF9192018F0A6FAA3B2002BDB
:10585000E7D00134652CF1D1734B1968754850F0CD
:10586000BDFB754B1968754850F0B8FB744B19684F
:10587000744850F0B3FB744850F018FCFDF7B4FCCA
:10588000724850F013FCFFF711FF714850F00EFC06
:105890004FF47A70FFF7ECFE6E4850F09FFBFBF779
:1058A0004BFB6D4850F09AFB04F0C8F86B4850F081
:1058B000FDFB04F0DBFC6A4850F0F8FB12F058FDE9
:1058C000684850F0F3FBFBF7C7FE674850F0EEFB6B
:1058D00001F0D6FF654850F0E9FB08F06FFC0120AD
:1058E00000F044F9624850F0E1FB624B93F86839EC
:1058F0002BB1012B4ED0604850F0D8FB02E05F483E
:1059000050F0D4FB5E4821F069FC16F0B7FB5D4B0C
:10591000D3ED0E7A9FED5C7A67EE877AFCEEE77A3C
:10592000C3ED117A4FF4FA7018F036FA574B002293
:105930009A73DA730321597383F8FC2083F8FD20EE
:10594000534B5B78FF2B29D0FFF722FF032814BFAE
:10595000002301234D4A82F8E8304E4B986A4E4BA3
:1059600003F1180113F8012FFF2A1CD18B42F9D142
:105970000024484B9C6201F057FE484B1C605C6061
:105980009C60DC601C615C6101F068FE444850F082
:105990008DFB0BE0434850F089FBB3E73C4BFF2203
:1059A00083F8E920D0E7B0F1FF3FE1D0394B9B6AA3
:1059B000FBB13D4A527E62B93C48826842F0020225
:1059C00082604360052300F80C3B344951F0AFFC82
:1059D00012E03648826842F002028260436005238A
:1059E00000F80C3B294B08221A732C4951F09FFCFC
:1059F00002E0264B04221A732D4850F057FB05F0A5
:105A000045FD294B9B7D33B908232A4A9370204AD0
:105A100093711E4A937115F015F8F8BD04BF07087D
:105A200020BF07083CBF07083C00002458C30708F4
:105A30003400002460BF07083000002488BF070836
:105A400038000024B0BF0708D8BF070804C0070803
:105A500034C0070864C0070898C00708C8C0070812
:105A6000F4C0070820C1070850C1070870C1070823
:105A70009CC107085C2A012430C20708D0C107086E
:105A800038CF0124A004002400401C46A8060024AE
:105A9000A80800248CFF002473FF002474FF002456
:105AA00068C2070800C20708F47B0024C8FF00246E
:105AB00094C207081812002410B4022819D10868EB
:105AC00010B9019C0C6005E00199081A154988423B
:105AD0000AD90020126810441349884298BF024630
